:020000040800F2
:10000000A807002031020008B10B0008D908000839
:10001000AD0B0008F1050008F31100080000000016
:10002000000000000000000000000000590D000862
:10003000F5050008000000002D0C0008490E00081E
:100040004B0200084B0200084B0200084B0200085C
:100050004B0200084B0200084B0200084B0200084C
:100060004B0200084B0200084B0200084B0200083C
:100070004B0200084B0200084B0200084B0200082C
:100080004B0200084B0200084B0200084B0200081C
:100090004B0200084B0200084B0200084B0200080C
:1000A0004B0200084B0200084B0200084B020008FC
:1000B0004B0200084B0200084B0200084B020008EC
:1000C0004B0200084B0200084B0200084B020008DC
:1000D0004B020008B50E00084B0200084B02000856
:1000E0004B0200084B0200084B0200084B020008BC
:1000F0004B0200084B0200084B0200084B020008AC
:100100004B0200084B0200084B0200084B0200089B
:100110004B0200084B0200084B0200084B0200088B
:100120004B0200084B0200084B0200084B0200087B
:100130004B0200084B0200084B0200084B0200086B
:100140004B0200084B0200084B0200084B0200085B
:100150004B0200084B0200084B0200084B0200084B
:100160004B0200084B0200084B0200084B0200083B
:100170004B0200084B0200084B0200084B0200082B
:100180004B0200084B02000800F002F800F041F8B2
:100190000AA090E8000C82448344AAF10107DA45E2
:1001A00001D100F036F8AFF2090EBAE80F0013F0F3
:1001B000010F18BFFB1A43F0010318477C1400001D
:1001C0009C140000103A24BF78C878C1FAD85207AE
:1001D00024BF30C830C144BF04680C6070470000C1
:1001E0000023002400250026103A28BF78C1FBD840
:1001F000520728BF30C148BF0B607047642900F028
:100200007980002070471FB501F00BFA1FBD10B5B3
:1002100010BD00F083F91146FFF7F5FF01F04CF82F
:1002200000F0A1F903B4FFF7F2FF03BC00F0E3FF15
:100230000948804709480047FEE7FEE7FEE7FEE77A
:10024000FEE7FEE7FEE7FEE7FEE7FEE704480549B6
:10025000054A064B704700004D0E00088901000852
:10026000A8010020A8070020A8030020A803002060
:10027000704700000FB4044910B503AA029800F0BB
:100280001BF910BC5DF814FB400000202DE9F04183
:100290000E460446002020622046E168884730B3BD
:1002A000252805D0D4E901219047206A401CF2E7B7
:1002B000E168204600278847050018D0A5F14100D5
:1002C000192802D820354FF40067324629462046C7
:1002D0002760FFF793FF40B1012804D0F61D26F0F8
:1002E00007060836D8E7361DD6E72846DAE7206A3B
:1002F000BDE8F0812DE9F04106460024106875291B
:10030000314616A510D0AFF30080002802DA404233
:1003100013A507E031688A0701D512A502E0490755
:1003200004D511A5012401E0AFF3008000210A22C9
:1003300006F1240709E0B0FBF2FCB0FBF2F302FB8C
:100340001C00303078541846491C0028F3D123464D
:100350002A463046BDE8F04100F055B800000000E4
:100360002D0000002B000000200000004FF00002D4
:100370000429C0F0128010F0030C00F01B80CCF1B7
:10038000040CBCF1020F18BF00F8012BA8BF20F825
:10039000022BA1EB0C0100F00DB85FEAC17C24BF79
:1003A00000F8012B00F8012B48BF00F8012B704723
:1003B0004FF0000200B5134694469646203922BFFE
:1003C000A0E80C50A0E80C50B1F12001BFF4F7AF49
:1003D000090728BFA0E80C5048BF0CC05DF804EB2B
:1003E000890028BF40F8042B08BF704748BF20F899
:1003F000022B11F0804F18BF00F8012B7047704797
:100400007047704770472DE9F0470D469946924670
:10041000044600F124080168880604D5E06921F04B
:100420001001216000E00120A84201DD471B00E02F
:100430000027A1697A1902EB0900081AA061207847
:10044000C00602D42046AFF30080002608E0D4E9BD
:1004500001211AF806009047206A401C761C206291
:100460004E45F4DB2078C0060AD52046AFF3008065
:1004700006E0D4E9012130209047206A401C206228
:10048000381EA7F10107F4DC07E0D4E9012118F8D0
:1004900005009047206A401C2062281EA5F1010536
:1004A000F3DC2046AFF300802078000602D502205E
:1004B000BDE8F0870120FBE7074B70B50D467B4494
:1004C00000F015F80446284600F024F810B14FF06B
:1004D000FF3070BD204670BDD30D0000004870474E
:1004E0004801002001694A1C02610878704700B584
:1004F0008FB0CDE901310021059105497944CDE95D
:10050000031011466846FFF7C1FE0FB000BD0000A2
:10051000E5FFFFFF007B00F0800070477546FFF7A6
:10052000DDFFAE4605006946534620F007008546CC
:1005300018B020B5FFF78AFEBDE820404FF0000656
:100540004FF000074FF000084FF0000B21F00701BB
:10055000AC46ACE8C009ACE8C009ACE8C009ACE8FE
:10056000C0098D4670470446AFF300802046FFF770
:1005700059FE000010B54FF48071024800F0AFF84A
:1005800010BD0000001402401CB50121302000F015
:100590004FFB4FF48070009001208DF80400002084
:1005A0008DF806008DF8070003208DF805006946D8
:1005B000044800F020F84FF48071024800F08FF8F2
:1005C0001CBD00000014024010B54FF480710248B9
:1005D00000F087F810BD00000014024010B504467A
:1005E000FFF7F2FF204600F00BFEFFF7C3FF10BD40
:1005F00000BFFEE77047F0B50A4600210023002443
:1006000000BF3DE0012505FA01F3156805EA030482
:100610009C4234D105684F000326BE40B5430560B7
:1006200015794E00B5400668354305601579012DF2
:1006300002D01579022D16D185684F000326BE40E1
:10064000B543856055794E00B54086683543856071
:10065000456801268E40B5434560456896798E40D1
:10066000B6B235434560C5684F000326BE40B5436A
:10067000C560D5794E00B540C6683543C560491C94
:100680001029BFD3F0BDF0B5002300244D07ED0EB7
:1006900002FA05F3CE1000F1200555F826504E075A
:1006A000F70E0F26BE40B543CF1000F1200646F8E6
:1006B0002750CE1000F1200555F8265045EA0304D6
:1006C000CE1000F1200545F82640F0BD024600207E
:1006D00013690B400BB1012000E0002070474183FB
:1006E000704701837047000010B52DED068B9FED1C
:1006F000200AB0EE408A40211E48FFF7F2FF0F208B
:1007000000F0A4FD40211B48FFF7E9FF00BF402196
:100710001948FFF7DBFF0028F9D008E0092000F0B6
:1007200095FDB7EE000A38EE000AB0EE408A40218F
:100730001148FFF7CBFF0128F0D0B0EE000AC8EE59
:10074000000AB0EE608A18EE100A00F0F9FE41ECE3
:100750001A0B9FED0A0B53EC102B00F0F3FD41EC4C
:10076000190B00F0BDFD00EE100ABDEC068B10BDAC
:100770000000000000040240001002406666666649
:1007800066660A401CB50121022000F051FA0121E1
:10079000102000F04DFA4020009001208DF8040058
:1007A00000208DF806008DF8070003208DF8050065
:1007B00069460D48FFF71FFF4020009000208DF88C
:1007C00004008DF8070003208DF8050069460748EE
:1007D000FFF711FF40210448FFF781FF4021034844
:1007E000FFF77DFF1CBD0000000402400010024026
:1007F00010B5FFF779FFBDEEC00A10EE104A142CB9
:100800000CDDB4F57A6F09DA0648006894FBF0F065
:1008100005490860214605A0FFF72CFD642000F083
:10082000EFFC10BD440000200000002064697374D8
:10083000616E742069732025646D6D0D0A000000DF
:1008400010B50C480068401C00F02EF909480068FB
:10085000032805D007480068401C0649086002E0EC
:1008600001200449086003480068401C00F074F946
:1008700010BD00004400002010B500F085F80128EC
:100880001AD117E013480168032000F0F9F8FFF7C8
:10089000AFFF022000F022F800B10CE0032000F0CE
:1008A0001DF838B1FFF7CCFF00BF032000F016F8A9
:1008B0000028FAD1E6E70BE000F066F8032807D13C
:1008C000FFF7BEFF00BF032000F008F80028FAD1B0
:1008D00010BD00000000002000BFFEE710B5044678
:1008E000012C06D0022C0DD0032C14D0042C24D1C2
:1008F0001AE001211348FFF7E9FE08B9012010BDF5
:100900000020FCE704211048FFF7E0FE08B90120B1
:10091000F5E70020F3E708210B48FFF7D7FE08B9F9
:100920000120ECE70020EAE710210748FFF7CEFEA0
:1009300008B90120E3E70020E1E700BF00BF002085
:10094000DDE7000000000240001002401CB501215C
:10095000112000F06DF91C20009000208DF804009B
:100960008DF8070003208DF8050069460448FFF75D
:1009700042FE1C20009069460248FFF73CFE1CBD69
:10098000000002400010024010B500BF0120FFF738
:10099000A5FF60B90220FFF7A1FF40B90320FFF7D0
:1009A0009DFF20B90420FFF799FF0028EED0012019
:1009B000FFF794FF01280ED00220FFF78FFF0128D8
:1009C00009D00320FFF78AFF012804D00420FFF795
:1009D00085FF012851D10120FFF780FF01280DD1AB
:1009E000142000F00DFC00BF0120FFF777FF012865
:1009F000FAD0142000F004FC012010BD0220FFF703
:100A00006DFF01280DD1142000F0FAFB00BF022079
:100A1000FFF764FF0128FAD0142000F0F1FB022058
:100A2000EBE70320FFF75AFF012810D1142000F054
:100A3000E7FB00BF0320FFF751FF0128FAD0142085
:100A400000F0DEFB6420FFF7C9FD0320D5E704209A
:100A5000FFF744FF012810D1142000F0D1FB00BFA4
:100A60000420FFF73BFF0128FAD0142000F0C8FB58
:100A70006420FFF7B3FD0420BFE70020BDE70000BE
:100A800070B505460C460748006800F065F820463A
:100A900000F0B6FB0348006800F006F8204600F0BE
:100AA000AFFB70BD0800002010B50446012C06D035
:100AB000022C0AD0032C0ED0042C18D111E04FF4D4
:100AC00000710C48FFF70DFE11E04FF480610948FA
:100AD000FFF707FE0BE04FF400510748FFF701FE58
:100AE00005E04FF480410448FFF7FBFD00BF00BF65
:100AF00010BD000000140240001002401CB501218E
:100B0000302000F095F84FF4C060009001208DF87F
:100B1000040000208DF806008DF8070003208DF8F2
:100B2000050069460A48FFF766FD4FF4C040009093
:100B300069460848FFF75FFD4FF4C0610448FFF7BE
:100B4000D0FD4FF4C0410348FFF7CBFD1CBD0000B2
:100B5000001402400010024010B50446012C06D0DB
:100B6000022C0AD0032C0ED0042C18D111E04FF423
:100B700000710C48FFF7B3FD11E04FF480610948A4
:100B8000FFF7ADFD0BE04FF400510748FFF7A7FD5D
:100B900005E04FF480410448FFF7A1FD00BF00BF0E
:100BA00010BD0000001402400010024000BFFEE72C
:100BB0007047000070B5002100230F22C4781CB3D9
:100BC000174C246804F4E064C4F5E064C4F307211E
:100BD000C1F10404E3B20A4144789C40E1B2847854
:100BE000144021430C07210E0E4C05786155047802
:100BF00004F01F050124AC4005786D11AD0005F12E
:100C0000E025C5F8004109E0047804F01F0501243F
:100C1000AC40054D0678761145F8264070BD0000C1
:100C20000CED00E000E400E080E100E0704700002F
:100C300029B1064A12680243044B1A6004E0034AD1
:100C400012688243014B1A6070470000303802403E
:100C500029B1064A12680243044B1A6004E0034AB1
:100C600012688243014B1A6070470000443802400A
:100C7000F0B5002100220024022500260223324F75
:100C80003F6807F00C0121B1042905D0082937D1AC
:100C900005E02E4F076036E02D4F076033E02A4F06
:100CA0003F1F3F68C7F38056274F3F1F3F6807F03D
:100CB0003F036EB1264FB7FBF3F7DFF88CC0ACF102
:100CC000040CDCF800C0CCF3881C07FB0CF40CE02F
:100CD0001E4FB7FBF3F7DFF870C0ACF1040CDCF883
:100CE00000C0CCF3881C07FB0CF4174F3F1F3F6874
:100CF000C7F301477F1C7D00B4FBF5F7076002E0F6
:100D0000124F076000BF00BF0F4F3F6807F0F001B0
:100D10000909104F7A5C0768D74047600A4F3F685F
:100D200007F4E051890A0B4F7A5C4768D740876027
:100D3000054F3F6807F46041490B064F7A5C4768EE
:100D4000D740C760F0BD0000083802400024F4001E
:100D500000127A0020000020704700000CB500202F
:100D6000019000903448006840F4803032490860B7
:100D700000BF3148006800F4003000900198401C2A
:100D80000190009818B90198B0F5A04FF1D12A4808
:100D9000006800F4003010B10120009001E0002054
:100DA00000900098012846D123484030006840F068
:100DB00080502149403108602048006840F440409C
:100DC0001E4908601C48083000681B49083108604B
:100DD0000846006840F4004008600846006840F497
:100DE000A05008601648091F0860081F006840F0FE
:100DF0008070091F086000BF0F48006800F0007095
:100E00000028F9D040F205700E4908600A48083001
:100E1000006820F0030008490831086008460068AF
:100E200040F00200086000BF03480830006800F08E
:100E30000C000828F8D10CBD0038024000700040BA
:100E400008544007003C02407047000010B51548A8
:100E5000006840F47000134908601348006840F0CF
:100E600001001149086000200F49083108600E4850
:100E700000680E4908400C4908600D48091D0860CB
:100E8000081F006820F48020091F08600020064920
:100E90000C310860FFF762FF4FF0006001498039B4
:100EA000086010BD88ED00E000380240FFFFF6FE4C
:100EB0001030002410B540F22551254800F0D6F836
:100EC000012843D1224800F08BF9C1B221480268C1
:100ED0000068401C1F4B18601F488154184600686A
:100EE0001E49086018460068401E1B49085C4028DF
:100EF00027D118460068801E085C402821D10020B8
:100F0000174908600CE0144815490968405C154908
:100F1000134A1268885412480068401C104908603F
:100F20000C480068801E0E4909688842EBDC0120ED
:100F30000D49086080210848FFF718FA002005498C
:100F4000086040F22551024800F068F810BD00002A
:100F50000010014030000020C80000203C000020AC
:100F600034000020480000203800002010B588B070
:100F7000044601211020FFF76BFE01210846FFF710
:100F800057FE072209212348FFF77DFB07220A218C
:100F90002048FFF778FB02208DF81C0000208DF818
:100FA0001E0003208DF81D0001208DF81F004FF456
:100FB000C060069006A91748FFF71DFB02940020A9
:100FC000ADF814000C20ADF812000020ADF81000B0
:100FD000ADF80E00ADF80C0002A90F4800F096F82D
:100FE00001210D4800F029F8012240F225510A485C
:100FF00000F066F825208DF8040001208DF8070028
:101000008DF805008DF8060001A8FFF7D3FD08B0A4
:1010100010BD0000000002400010014010B5002289
:10102000002340F66A14A14200D100BF0A12012435
:101030009440A3B2DC43048010BD21B1828942F404
:101040000052828104E082894DF6FF731A4082814A
:10105000704702460020B1F5007F00D100BF138821
:101060000B400BB1012000E00020704770B5024634
:10107000002400230025002040F66A16B14200D16A
:1010800000BFC1F3421501F01F03012606FA03F366
:10109000012D02D19689334006E0022D02D1168A35
:1010A000334001E0968A33400C12012606FA04F41C
:1010B0001688344013B10CB1012000E0002070BD4F
:1010C000F0B50346002400260025002040F66A17EC
:1010D000B94200D100BF1846C1F3421401F01F0607
:1010E000012707FA06F5012C01D10C3004E0022C8F
:1010F00001D1103000E014301AB107682F430760A7
:1011000002E00768AF430760F0BD00002DE9FF472C
:1011100005460E460024A14600BFA046B08900B196
:1011200000BF2C8A24F44054F08804432C82AC89FC
:1011300041F20C608443B0883189084371890843C7
:101140000443AC81AC8A24F44074B0890443AC827B
:101150006846FFF78DFD2048854202D01F48854232
:1011600002D1DDF80C9001E0DDF80890A88900F4C8
:10117000004040B109EBC90000EB0910316849009B
:10118000B0FBF1F707E009EBC90000EB091031688B
:101190008900B0FBF1F76420B7FBF0F004012009EF
:1011A000642101FB1078A88900F4004040B132208E
:1011B00000EBC800B0FBF1F000F00700044308E0CA
:1011C000322000EB08106421B0FBF1F000F00F00BA
:1011D00004432C81BDE8FF8700100140001401404A
:1011E00001468888C0F308007047C1F30802828076
:1011F000704700BFFEE7014600BF002070470000B7
:101200001DE000214FF0E02211610F490968C90873
:101210004FF47A72B1FBF2F14FF0E02251610021FC
:1012200091610121116100BF4FF0E021096901F4D2
:1012300080310029F8D000214FF0E0221161010037
:10124000A0F10100DDD170470C00002000214FF01B
:10125000E02211610D490968C9080D4AB1FBF2F19C
:1012600041434FF0E0225161002191610121116160
:1012700000BF4FF0E021096901F480310029F8D066
:1012800000214FF0E0221161704700000C000020A7
:1012900040420F0070B504460D46A1B20548FFF765
:1012A000A4FF00BF80210348FFF7D3FE0028F9D038
:1012B000204670BD0010014000BFFFF71FFCFFF784
:1012C00045FBFFF761F94FF41650FFF74FFEFFF7AC
:1012D00059FA0220FFF740FC01E0FFF7CDFAFCE7E6
:1012E00021F00042A2F16052B2F5801F01F00043EC
:1012F00028BFD2F17F6C0BD95FEA001C43EAC2021F
:1013000042EB507018BF704728BF20F001007047B3
:10131000B2F5801FBCBF184670474FEA410C1CF560
:10132000001F02D2084600F081B970B500F0B4F891
:1013300000000089FFF7F6BF4FF00040A0F58000E5
:1013400070470000DFF848C170B51CEA111E1EBFCF
:101350001CEA13159EEA0C0F95EA0C0F00F06F8043
:1013600081EA030423EA4C134EEAD47E21EA4C11AD
:1013700041F4801143F48013AE44A1FB024CA0FB66
:101380000365AEF17F7E361955EB0C05A1FB034CCE
:101390004CF10003A0FB021C16EB0C06654153F157
:1013A0000003094218BF46F0010613F4007F0BD179
:1013B0004FEA03314FEA0530340341EA155140EA60
:1013C00016506FF003020AE04FEAC3214FEAC5202E
:1013D000F40241EA555140EA56506FF0020202EB26
:1013E0002E4201EB025585EACE710AD05FEA440C29
:1013F00018BF24F0004450F1000041F1000120EA40
:10140000D47040F2FE7C624500D270BDA84214BF89
:101410004FF080444FF04044002E08BF0024BEF13E
:10142000806FA8BFA1F1C041BDE8704080F282800A
:101430004FF0000001F1C04101F0004170479EEA09
:101440000C0F0CEA131518BF95EA0C0F06D04FF0DD
:10145000000081EA030E0EF0004170BD00F01CF8A0
:101460008900013E00F007B800F009B84FEA430CCC
:101470005FEA5C5C08D081EA030100F05BB84FEAE8
:10148000410C5FEA5C5CF6D14FF000000149704707
:101490000000FF070000F87F0EF1020E2EF0030E91
:1014A0005EF8046B364205D4012A43EB030515F5BB
:1014B000001F12D8012841EB010C1CF5001F0CD8AD
:1014C0000ED14FEAD17C15F5001F0CEB4C0C0CF142
:1014D000020C08BF4CEBD37C04E04FF0080C01E099
:1014E0004FEAD37C0CEB4C0526FA05F606F007060E
:1014F000B6F1040C06D20EEB860CBDE870404CF041
:10150000010C6047DFE80CF0090B02024FF00041CC
:101510004FF00000A1F5002170BD194610460128CA
:1015200051EB010418BFD4F5001484BF002001F072
:10153000004170BD0808A0F500114FEA3101704765
:1015400043004FEAD30C4FEA3C0C43401FBF400717
:101550000CF1605113F0FE4F70471CF0006F03D187
:1015600000200CF0004170470CF0004343EA50703B
:1015700010B540EACC0000F00EF800BF0000009269
:101580004FEA0001FFF7D6BF4FF000414FF00000D7
:10159000A1F5002170470EF1020E2EF0030E5EF849
:1015A000044B244204D44FEA4102B2F17F4F11D8D8
:1015B0004FEA4003B3F17F4F0CD80ED14FEAD07CF5
:1015C000B2F17F4F0CEB4C0C0CF1020C08BF4CEB52
:1015D000D17C04E04FF0080C01E04FEAD17C0CEB29
:1015E0004C0324FA03F404F00704B4F1040C06D20B
:1015F0000EEB840CBDE810404CF0010C6047DFE8B6
:101600000CF0070802024FF00040A0F5800010BD6A
:101610000846420018BFD2F1807288BF00F0004037
:1016200010BD4FF04070E1EE100A7047FF2141EA13
:10163000D050C00570470000581600080000002078
:1016400048000000C4010008A0160008480000205F
:1016500060070000E00100086400000000000000D6
:1016600001000000007A030A0000000000000000F2
:101670000102030406070809000000000102030438
:101680000102030406070809000000000000000032
:101690000000000000000000000000000100000049
:040000050800018965
:00000001FF
