:020000040800F2
:10000000B007002045020008C90A000829090008B5
:10001000C50A000845080008811300080000000018
:10002000000000000000000000000000710C00084B
:100030004908000800000000450B0008610D000899
:100040005F0200085F0200085F0200085F0200080C
:100050005F0200085F0200085F0200085F020008FC
:100060005F0200085F0200085F0200085F020008EC
:100070005F0200085F0200085F0200085F020008DC
:100080005F0200085F0200085F0200085F020008CC
:100090005F0200085F0200085F0200085F020008BC
:1000A0005F0200085F0200085F0200085F020008AC
:1000B0005F0200085F0200085F0200085F0200089C
:1000C0005F0200085F0200085F0200085F0200088C
:1000D0005F020008CD0D00085F0200085F02000803
:1000E0005F0200085F0200085F0200085F0200086C
:1000F0005F0200085F0200085F0200085F0200085C
:100100005F0200085F0200085F0200085F0200084B
:100110005F0200085F0200085F0200085F0200083B
:100120005F0200085F0200085F0200085F0200082B
:100130005F0200085F0200085F0200085F0200081B
:100140005F0200085F0200085F0200085F0200080B
:100150005F0200085F0200085F0200085F020008FB
:100160005F0200085F0200085F0200085F020008EB
:100170005F0200085F0200085F0200085F020008DB
:100180005F0200085F02000800F002F800F04AF881
:100190000AA090E8000C82448344AAF10107DA45E2
:1001A00001D100F03FF8AFF2090EBAE80F0013F0EA
:1001B000010F18BFFB1A43F0010318477812000023
:1001C00098120000103A24BF78C878C1FAD85207B4
:1001D00024BF30C830C144BF04680C6070470000C1
:1001E0000023002400250026103A28BF78C1FBD840
:1001F000520728BF30C148BF0B607047642900F028
:100200008380002070471FB501F00EF900F0A2FABC
:1002100004000020002101F0F1F8401C60601FBDC7
:1002200010B510BD00F071FA1146FFF7ECFF01F0B8
:10023000CFF800F0A1FA03B4FFF7F2FF03BC01F01E
:10024000A1F800000948804709480047FEE7FEE79B
:10025000FEE7FEE7FEE7FEE7FEE7FEE7FEE7FEE776
:1002600004480549054A064B70470000650D000823
:1002700089010008B0010020B0070020B003002071
:10028000B0030020704700000FB4044910B503AA62
:10029000029800F079F910BC5DF814FB2C000020E6
:1002A0002DE9F0410E460446002020622046E16818
:1002B000884730B3252805D0D4E901219047206A2A
:1002C000401CF2E7E168204600278847050018D067
:1002D000A5F14100192802D820354FF400673246B5
:1002E000294620462760FFF789FF40B1012804D046
:1002F000F61D26F007060836D8E7361DD6E728464D
:10030000DAE7206ABDE8F0812DE9F04106460024D5
:1003100010687529314616A510D0AFF3008000286B
:1003200002DA404213A507E031688A0701D512A519
:1003300002E0490704D511A5012401E0AFF30080D4
:1003400000210A2206F1240709E0B0FBF2FCB0FB11
:10035000F2F302FB1C00303078541846491C002888
:10036000F3D123462A463046BDE8F04100F0B2B84A
:10037000000000002D0000002B0000002000000005
:1003800070B5064600F0A2F80468054630460A2219
:10039000002100F00BF92C6070BD40EA010370B53C
:1003A0009B072ED14FF00136042A2AD308C810C962
:1003B0009D1B9D43121F15EAC61517D0D8B2E1B296
:1003C000401A50EA056110D198B2A1B2401A50EA21
:1003D00005410AD123F07F4024F07F41401A50EAC2
:1003E000052102D1180EA0EB146070BDA342DBD032
:1003F00018BA21BA884201D9012070BD4FF0FF30F0
:1004000070BD0AB9002070BD10F8013B11F8014B16
:1004100063B1A3420AD1521E08D010F8013B11F873
:10042000014B1BB1A34201D1521EEDD1181B70BD6F
:100430004FF000020429C0F0128010F0030C00F00D
:100440001B80CCF1040CBCF1020F18BF00F8012B8B
:10045000A8BF20F8022BA1EB0C0100F00DB85FEA59
:10046000C17C24BF00F8012B00F8012B48BF00F825
:10047000012B70474FF0000200B513469446964694
:10048000203922BFA0E80C50A0E80C50B1F12001A7
:10049000BFF4F7AF090728BFA0E80C5048BF0CC055
:1004A0005DF804EB890028BF40F8042B08BF7047B3
:1004B00048BF20F8022B11F0804F18BF00F8012B25
:1004C000704770477047704770470000004870479A
:1004D000500100202DE9F0470D469946924604460A
:1004E00000F124080168880604D5E06921F01001B4
:1004F000216000E00120A84201DD471B00E0002749
:10050000A1697A1902EB0900081AA0612078C006D7
:1005100002D42046AFF30080002608E0D4E9012190
:100520001AF806009047206A401C761C20624E454F
:10053000F4DB2078C0060AD52046AFF3008006E041
:10054000D4E9012130209047206A401C2062381EE7
:10055000A7F10107F4DC07E0D4E9012118F8050050
:100560009047206A401C2062281EA5F10105F3DC9B
:100570002046AFF300802078000602D50220BDE8B7
:10058000F0870120FBE70000074B70B50D467B4468
:1005900000F055F80446284600F0B3F810B14FF0CB
:1005A000FF3070BD204670BD1B0E00002DE9F047E6
:1005B00091460F4680460446002614F8015B2DB193
:1005C00000F030F80068405DC007F6D12B2D02D056
:1005D0002D2D18D0641E4A463946204600F042F8B8
:1005E00027B13968A14201D1C7F800804FF0020459
:1005F00071050BD54042002803DDFFF767FF04605B
:10060000A007BDE8F08746F48066E4E70028F8DA42
:10061000FFF75CFF04606FF00040F2E700487047AE
:100620005001002010B500F095F8001D10BD00BF6E
:10063000CD0D000001694A1C02610878704700B5C1
:100640008FB0CDE901310021059105497944CDE90B
:10065000031011466846FFF723FE0FB000BD0000EF
:10066000E5FFFFFF2DE9F05F824615468B46002728
:100670000AF10104B9460078302801D09DB113E099
:1006800014F8010B0127782803D0582801D045B170
:100690000AE00DB1102D07D1002714F8010B102529
:1006A00002E0082500E00A250026B0460EE005FB22
:1006B000080005FB06F101271FFA80F801EB104640
:1006C000B6F5803F00D3B94614F8010B294600F077
:1006D00045F80028EBDABBF1000F05D00FB1641E1E
:1006E00000E05446CBF80040B9F1000F06D0FFF708
:1006F000EDFE02210160C81EBDE8F09F48EA0640F9
:10070000FAE7007B00F0800070477546FFF786FF30
:10071000AE4605006946534620F00700854618B0EE
:1007200020B5FFF79DFDBDE820404FF000064FF0DB
:1007300000074FF000084FF0000B21F00701AC4616
:10074000ACE8C009ACE8C009ACE8C009ACE8C00935
:100750008D46704700487047700100203A2800D24B
:10076000303820F02002412A01D3A2F1370088421C
:1007700001D34FF0FF3070470446AFF300802046AE
:10078000FFF759FD4FF0013C50F8042B51F8043BA2
:100790009A4221D1A2EB0C03934313EACC1317D155
:1007A00050F8042B51F8043B9A4215D1A2EB0C03EC
:1007B000934313EACC130BD150F8042B51F8043BAC
:1007C0009A4209D1A2EB0C03934313EACC13DBD07A
:1007D0004FF00000704700BFD01A01BAB1FA81F1A2
:1007E00001F0180122FA01F0CB40C1F12001DBB287
:1007F000C0B2C01A2CFA01F3D11A914311EAC31105
:10080000E6D170471CB50121302000F09DF94FF46E
:100810008070009001208DF8040000208DF8060003
:100820008DF8070003208DF805006946044800F0A4
:100830000CF84FF48071024800F072F81CBD000003
:100840000014024000BFFEE77047F0B50A460021E1
:100850000023002400BF3DE0012505FA01F31568DF
:1008600005EA03049C4234D105684F000326BE40CC
:10087000B543056015794E00B540066835430560FF
:100880001579012D02D01579022D16D185684F00FA
:100890000326BE40B543856055794E00B540866855
:1008A00035438560456801268E40B54345604568FF
:1008B00096798E40B6B235434560C5684F00032631
:1008C000BE40B543C560D5794E00B540C6683543D6
:1008D000C560491C1029BFD3F0BDF0B5002300242A
:1008E0004D07ED0E02FA05F3CE1000F1200555F884
:1008F00026504E07F70E0F26BE40B543CF1000F12D
:10090000200646F82750CE1000F1200555F8265055
:1009100045EA0304CE1000F1200545F82640F0BD5D
:10092000418370470183704700BFFEE71CB501217A
:10093000112000F009F91C20009000208DF804001F
:100940008DF8070003208DF8050069460448FFF77D
:100950007CFF1C20009069460248FFF776FF1CBD13
:10096000000002400010024010B50446012C06D0E1
:10097000022C0AD0032C0ED0042C18D111E04FF415
:1009800000710C48FFF7CEFF11E04FF48061094879
:10099000FFF7C8FF0BE04FF400510748FFF7C2FF15
:1009A00005E04FF480410448FFF7BCFF00BF00BFE3
:1009B00010BD0000001402400010024070B5054652
:1009C0000C460948006868B10848006800F03EF825
:1009D000A0B200F0DBFC05480068FFF7C5FFA0B23D
:1009E00000F0D4FC70BD00000400002008000020CE
:1009F0001CB50121302000F0A7F84FF4C060009032
:100A000001208DF8040000208DF806008DF8070005
:100A100003208DF8050069460A48FFF716FF4FF4DA
:100A2000C040009069460848FFF70FFF4FF4C061CF
:100A30000448FFF777FF4FF4C0410348FFF772FF08
:100A40001CBD0000001402400010024010B5044616
:100A5000012C06D0022C0AD0032C0ED0042C18D165
:100A600011E04FF400710C48FFF75AFF11E04FF40A
:100A700080610948FFF754FF0BE04FF4005107482D
:100A8000FFF74EFF05E04FF480410448FFF748FFB1
:100A900000BF00BF10BD0000001402400010024063
:100AA00028B1074909680A31054A116007E004497D
:100AB000096821B1024909680A39014A1160704781
:100AC0000000002000BFFEE77047000070B5002165
:100AD00000230F22C4781CB3174C246804F4E0648C
:100AE000C4F5E064C4F30721C1F10404E3B20A4190
:100AF00044789C40E1B28478144021430C07210ED5
:100B00000E4C05786155047804F01F050124AC40B3
:100B100005786D11AD0005F1E025C5F8004109E04B
:100B2000047804F01F050124AC40054D06787611C9
:100B300045F8264070BD00000CED00E000E400E048
:100B400080E100E07047000029B1064A12680243C4
:100B5000044B1A6004E0034A12688243014B1A6096
:100B6000704700003038024029B1064A126802433B
:100B7000044B1A6004E0034A12688243014B1A6076
:100B80007047000044380240F0B5002100220024E4
:100B9000022500260223324F3F6807F00C0121B1E5
:100BA000042905D0082937D105E02E4F076036E02B
:100BB0002D4F076033E02A4F3F1F3F68C7F3805631
:100BC000274F3F1F3F6807F03F036EB1264FB7FB2B
:100BD000F3F7DFF88CC0ACF1040CDCF800C0CCF308
:100BE000881C07FB0CF40CE01E4FB7FBF3F7DFF893
:100BF00070C0ACF1040CDCF800C0CCF3881C07FB1F
:100C00000CF4174F3F1F3F68C7F301477F1C7D005F
:100C1000B4FBF5F7076002E0124F076000BF00BFAA
:100C20000F4F3F6807F0F0010909104F7A5C076821
:100C3000D74047600A4F3F6807F4E051890A0B4FDD
:100C40007A5C4768D7408760054F3F6807F460418A
:100C5000490B064F7A5C4768D740C760F0BD00007B
:100C6000083802400024F40000127A000C00002032
:100C7000704700000CB500200190009034480068D7
:100C800040F480303249086000BF3148006800F409
:100C9000003000900198401C0190009818B901980C
:100CA000B0F5A04FF1D12A48006800F4003010B12F
:100CB0000120009001E0002000900098012846D11A
:100CC00023484030006840F080502149403108609E
:100CD0002048006840F440401E4908601C48083025
:100CE00000681B49083108600846006840F400406D
:100CF00008600846006840F4A05008601648091FC4
:100D00000860081F006840F08070091F086000BF7D
:100D10000F48006800F000700028F9D040F205701C
:100D20000E4908600A480830006820F003000849AE
:100D3000083108600846006840F00200086000BF03
:100D400003480830006800F00C000828F8D10CBDFA
:100D5000003802400070004019544007003C024037
:100D60007047000010B51548006840F47000134942
:100D700008601348006840F0010011490860002035
:100D80000F49083108600E4800680E4908400C49B8
:100D900008600D48091D0860081F006820F48020C5
:100DA000091F0860002006490C310860FFF762FF48
:100DB0004FF0006001498039086010BD88ED00E007
:100DC00000380240FFFFF6FE1030002410B540F25C
:100DD0002551254800F0D6F8012843D1224800F0DB
:100DE0008BF9C1B2214802680068401C1F4B186093
:100DF0001F488154184600681E490860184600685C
:100E0000401E1B49085C402827D118460068801EF8
:100E1000085C402821D10020174908600CE01448E4
:100E200015490968405C1549134A126888541248EC
:100E30000068401C104908600C480068801E0E497C
:100E400009688842EBDC01200D49086080210848D0
:100E5000FFF7EEFA00200549086040F225510248EC
:100E600000F068F810BD0000001001401C000020D8
:100E7000D00000202800002020000020500000208A
:100E80002400002010B588B0044601211020FFF78F
:100E90006BFE01210846FFF757FE07220921234870
:100EA000FFF71BFD07220A212048FFF716FD02204D
:100EB0008DF81C0000208DF81E0003208DF81D0009
:100EC00001208DF81F004FF4C060069006A9174856
:100ED000FFF7BBFC02940020ADF814000C20ADF825
:100EE00012000020ADF81000ADF80E00ADF80C00B7
:100EF00002A90F4800F096F801210D4800F029F8EA
:100F0000012240F225510A4800F066F825208DF8AC
:100F1000040001208DF807008DF805008DF806000B
:100F200001A8FFF7D3FD08B010BD0000000002408B
:100F30000010014010B50022002340F66A14A142BF
:100F400000D100BF0A1201249440A3B2DC43048004
:100F500010BD21B1828942F40052828104E082896D
:100F60004DF6FF731A408281704702460020B1F5AA
:100F7000007F00D100BF13880B400BB1012000E0BF
:100F80000020704770B50246002400230025002091
:100F900040F66A16B14200D100BFC1F3421501F01C
:100FA0001F03012606FA03F3012D02D1968933406F
:100FB00006E0022D02D1168A334001E0968A3340C2
:100FC0000C12012606FA04F41688344013B10CB151
:100FD000012000E0002070BDF0B50346002400268B
:100FE0000025002040F66A17B94200D100BF18461C
:100FF000C1F3421401F01F06012707FA06F5012C80
:1010000001D10C3004E0022C01D1103000E014308A
:101010001AB107682F43076002E00768AF43076013
:10102000F0BD00002DE9FF4705460E460024A1460D
:1010300000BFA046B08900B100BF2C8A24F4405400
:10104000F08804432C82AC8941F20C608443B08860
:1010500031890843718908430443AC81AC8A24F484
:101060004074B0890443AC826846FFF78DFD204888
:10107000854202D01F48854202D1DDF80C9001E084
:10108000DDF80890A88900F4004040B109EBC900E0
:1010900000EB091031684900B0FBF1F707E009EBFC
:1010A000C90000EB091031688900B0FBF1F764203A
:1010B000B7FBF0F004012009642101FB1078A88936
:1010C00000F4004040B1322000EBC800B0FBF1F06A
:1010D00000F00700044308E0322000EB0810642110
:1010E000B0FBF1F000F00F0004432C81BDE8FF8756
:1010F000001001400014014001468888C0F3080038
:101100007047000010B5072267A16948FFF745F94D
:1011100010BB68490968C91E654A8818FFF730F98D
:101120000446601E644951F8200090B96348006885
:10113000401E51F8200060B92046FFF787FC0121CE
:10114000601E5D4A42F8201021465DA0FFF79CF822
:1011500002E05EA0FFF798F808225FA15448FFF76D
:101160001CF900BB55480068401E534951F8200047
:10117000C8B950490968C91E4D4A8818FFF700F9D7
:101180000446601E4C4951F8200001280CD120462D
:10119000FFF7EAFB0121601E474A42F82010214672
:1011A00050A0FFF771F802E048A0FFF76DF80722A2
:1011B00050A13F48FFF7F1F838B90020FFF770FC65
:1011C0004E4801684EA0FFF75FF8062250A138484C
:1011D000FFF7E3F838B90120FFF762FC47480168E0
:1011E00047A0FFF751F807224BA13148FFF7D5F888
:1011F00028BB01204A490860002130480068401E91
:10120000484A42F820102B490968C91E284A881804
:10121000FFF7B6F82949086008460068401E2649CD
:1012200051F8200060B9012124480068401E3D4A61
:1012300042F82010214801683BA0FFF725F802E0A2
:1012400022A0FFF721F80A223CA11948FFF7A5F8D0
:10125000F8B9002032490860002118480068401E93
:10126000304A42F8201015480068401E114651F8D7
:10127000200001280AD12148016821A0FFF704F8C5
:101280000E48016830A0FEF7FFFF02E00FA0FEF756
:10129000FBFF3348006830B180210548FFF7C8F8EC
:1012A00000202F49086010BD4F70656E4C656400CA
:1012B00050000020280000204000002008000020EE
:1012C0004C45442564204F70656E0A00444F20450C
:1012D00052524F0A00000000436C6F73654C656406
:1012E000000000004C4544256420436C6F73650A80
:1012F000000000004C65644661737400000000202B
:101300004C656453706565643A25646D730A00002A
:101310004C65644C6F7700004C65645368616E00E7
:1013200004000020300000204C65642564205368D0
:10133000616E696E672E2E2E0A0000004C65644EA9
:101340006F745368616E00004C65642564204E6FB5
:1013500074205368616E696E672E2E2E0A0000009D
:1013600024000020C1F30802828000BF028802F03E
:101370004002002AFAD1028822F04002028070471F
:1013800000BFFEE7014600BF00207047002107E0D4
:1013900042F6E06100BF0A00A1F1010399B2FAD15F
:1013A0000200A0F1010398B2F2D1704770B5044673
:1013B0000D46A1B20548FFF7D5FF00BF80210348C5
:1013C000FFF7D3FD0028F9D0204670BD0010014082
:1013D0000324FFF70DFBFFF7A9FAFFF713FA4FF409
:1013E0001650FFF74FFD06E0034801682046FFF75F
:1013F000E5FAFFF787FEF7E70000002010B50029A7
:101400000AD00878002807D005487844FFF7BAF9D1
:10141000002801D0002010BD0248784410BD000013
:101420004A000000420000004FF04070E1EE100A58
:101430007047000064150008000000203000000024
:10144000C401000894150008300000208007000047
:10145000E00100081001000043000000F8FFFFFF5A
:1014600000404040404040404040414141414140B7
:10147000404040404040404040404040404040406C
:1014800040050202020202020202020202020202FB
:101490000220202020202020202020020202020200
:1014A0000202909090909090101010101010101058
:1014B0001010101010101010101010100202020264
:1014C00002028888888888880808080808080808A8
:1014D00008080808080808080808080802020202A4
:1014E00040000000000000000000000000000000BC
:1014F00000000000000000000000000000000000EC
:1015000000000000000000000000000000000000DB
:1015100000000000000000000000000000000000CB
:1015200000000000000000000000000000000000BB
:1015300000000000000000000000000000000000AB
:10154000000000000000000000000000000000009B
:10155000000000000000000000000000000000008B
:101560000000000064000000000000000100000016
:101570000000000001020304010203040607080939
:10158000000000000000000000000000000000005B
:041590000000000057
:040000050800018965
:00000001FF
