:020000040800F2
:10000000200A002079020008A90A00084D0900080A
:10001000A50A0008FD0500086B120008000000009A
:10002000000000000000000000000000D10D0008EA
:10003000ED07000800000000A50C0008C10E000834
:10004000930200089302000893020008930200083C
:10005000930200089302000893020008930200082C
:10006000930200089302000893020008930200081C
:10007000930200089302000893020008930200080C
:1000800093020008930200089302000893020008FC
:1000900093020008930200089302000893020008EC
:1000A00093020008930200089302000893020008DC
:1000B00093020008930200089302000893020008CC
:1000C00093020008930200089302000893020008BC
:1000D000930200082D0F0008930200089302000805
:1000E000930200089302000893020008930200089C
:1000F000930200089302000893020008930200088C
:10010000930200089302000893020008930200087B
:10011000930200089302000893020008930200086B
:10012000930200089302000893020008930200085B
:10013000930200089302000893020008930200084B
:10014000930200089302000893020008930200083B
:10015000930200089302000893020008930200082B
:10016000930200089302000893020008930200081B
:10017000930200089302000893020008930200080B
:10018000930200089302000800F002F800F065F8FE
:100190000AA090E8000C82448344AAF10107DA45E2
:1001A00001D100F05AF8AFF2090EBAE80F0013F0CF
:1001B000010F18BFFB1A43F001031847A8120000F3
:1001C000C812000010F8013B0A4413F0030408BFF2
:1001D00010F8014B1D1108BF10F8015B641E05D01B
:1001E00010F8016B641E01F8016BF9D1002D15D0D8
:1001F00010F8014B03F00C030C2BA1EB04040ABF15
:1002000010F8013BA4EB8314A4EB032405F10103D4
:1002100014F8016B5B1E01F8016BF9D5914238BFF0
:1002200010F8013BD1D3704700230024002500269D
:10023000103A28BF78C1FBD8520728BF30C148BF49
:100240000B607047642900F07980002070471FB56B
:1002500001F002F91FBD10B510BD00F083F9114681
:10026000FFF7F5FF01F0E2F800F0A1F903B4FFF7A2
:10027000F2FF03BC01F05EF80948804709480047D7
:10028000FEE7FEE7FEE7FEE7FEE7FEE7FEE7FEE746
:10029000FEE7FEE704480549054A064B70470000A3
:1002A000C50E00088901000820040020200A002053
:1002B0002006002020060020704700000FB40449EB
:1002C00010B503AA029800F01BF910BC5DF814FBEE
:1002D000340000202DE9F0410E4604460020206243
:1002E0002046E168884730B3252805D0D4E90121AC
:1002F0009047206A401CF2E7E168204600278847C3
:10030000050018D0A5F14100192802D820354FF476
:1003100000673246294620462760FFF793FF40B129
:10032000012804D0F61D26F007060836D8E7361D4A
:10033000D6E72846DAE7206ABDE8F0812DE9F041EA
:100340000646002410687529314616A510D0AFF373
:100350000080002802DA404213A507E031688A07CE
:1003600001D512A502E0490704D511A5012401E039
:10037000AFF3008000210A2206F1240709E0B0FB58
:10038000F2FCB0FBF2F302FB1C003030785418464C
:10039000491C0028F3D123462A463046BDE8F041E7
:1003A00000F055B8000000002D0000002B000000F8
:1003B000200000004FF000020429C0F0128010F06D
:1003C000030C00F01B80CCF1040CBCF1020F18BF31
:1003D00000F8012BA8BF20F8022BA1EB0C0100F0C4
:1003E0000DB85FEAC17C24BF00F8012B00F8012B97
:1003F00048BF00F8012B70474FF0000200B51346CC
:1004000094469646203922BFA0E80C50A0E80C5034
:10041000B1F12001BFF4F7AF090728BFA0E80C50E5
:1004200048BF0CC05DF804EB890028BF40F8042BDE
:1004300008BF704748BF20F8022B11F0804F18BF4B
:1004400000F8012B704770477047704770472DE9DF
:10045000F0470D4699469246044600F1240801688B
:10046000880604D5E06921F01001216000E0012038
:10047000A84201DD471B00E00027A1697A1902EBC1
:100480000900081AA0612078C00602D42046AFF304
:100490000080002608E0D4E901211AF80600904700
:1004A000206A401C761C20624E45F4DB2078C00692
:1004B0000AD52046AFF3008006E0D4E901213020C0
:1004C0009047206A401C2062381EA7F10107F4DC27
:1004D00007E0D4E9012118F805009047206A401C84
:1004E0002062281EA5F10105F3DC2046AFF3008051
:1004F0002078000602D50220BDE8F0870120FBE746
:10050000074B70B50D467B4400F015F804462846AD
:1005100000F024F810B14FF0FF3070BD204670BDE0
:10052000C70E000000487047C003002001694A1C44
:1005300002610878704700B58FB0CDE90131002124
:10054000059105497944CDE9031011466846FFF746
:10055000C1FE0FB000BD0000E5FFFFFF007B00F013
:10056000800070477546FFF7DDFFAE46050069461F
:10057000534620F00700854618B020B5FFF78AFEE5
:10058000BDE820404FF000064FF000074FF0000894
:100590004FF0000B21F00701AC46ACE8C009ACE815
:1005A000C009ACE8C009ACE8C0098D4670470446F4
:1005B000AFF300802046FFF759FE00001CB5012173
:1005C000302000F071FB4FF48070009001208DF816
:1005D000040000208DF806008DF8070003208DF838
:1005E00005006946044800F002F94FF480710248A2
:1005F00000F071F91CBD00000014024000BFFEE7CE
:100600001CB504464FF40070009000208DF80700E0
:10061000012C09D101208DF8040000208DF806007E
:1006200003208DF8050002E000208DF804006946E3
:10063000014800F0DCF81CBD001802402DE9F0472D
:1006400004460025A9460120FFF7DAFF4FF40071A8
:10065000404800F040F9142000F070FE4FF40071A3
:100660003C4800F03AF91E2000F08EFE0020FFF713
:10067000C7FF00BF4FF40071364800F023F901288E
:10068000F8D0002509E0012000F07EFE6D1C642DED
:1006900003DB4FF0FF30BDE8F0874FF400712D48C9
:1006A00000F010F90028EED0002508E0012000F04D
:1006B0006BFE6D1C642D02DB6FF00100EBE74FF465
:1006C0000071244800F0FEF80128EFD000262AE04F
:1006D0004FF00009002721E000BF4FF400711D48D2
:1006E00000F0F0F80028F8D0282000F04DFE4FF47C
:1006F0000071184800F0E6F801280ED1C7F1070193
:10070000884040EA090000F0FF0900BF4FF4007183
:10071000104800F0D7F80128F8D07F1C082FDBDB49
:1007200004F80690761C052ED2DB20786178084408
:10073000A1780844E17800EB0108207908F0FF0176
:10074000884202D06FF00200A5E7502000F01CFEA6
:100750000020A0E7001802401CB50121402000F055
:10076000A3FA4FF40070009001208DF804000020DF
:100770008DF806008DF8070003208DF80500694606
:10078000044800F034F84FF40071024800F0A5F876
:100790001CBD0000001802403EB5002001900290F0
:1007A000002401A8FFF74AFF04465CB99DF8050044
:1007B00000909DF804309DF807209DF8061004A0D5
:1007C000FFF77CFD41F2883000F0B8FD3EBD00002F
:1007D00074656D70A3BA25642E25642C2068756D30
:1007E00069A3BA25642E25640D0A00007047F0B590
:1007F0000A4600210023002400BF3DE0012505FA40
:1008000001F3156805EA03049C4234D105684F00E2
:100810000326BE40B543056015794E00B540066815
:10082000354305601579012D02D01579022D16D1B9
:1008300085684F000326BE40B543856055794E005C
:10084000B540866835438560456801268E40B543CE
:100850004560456896798E40B6B235434560C568B7
:100860004F000326BE40B543C560D5794E00B54064
:10087000C6683543C560491C1029BFD3F0BDF0B52B
:10088000002300244D07ED0E02FA05F3CE1000F10F
:10089000200555F826504E07F70E0F26BE40B543EB
:1008A000CF1000F1200646F82750CE1000F12005A9
:1008B00055F8265045EA0304CE1000F1200545F80E
:1008C0002640F0BD0246002013690B400BB1012009
:1008D00000E00020704741837047018370470000AB
:1008E0001CB50121022000F0DFF90121102000F0E9
:1008F000DBF94020009001208DF8040000208DF8E5
:1009000006008DF8070003208DF8050069460D48A4
:10091000FFF76DFF4020009000208DF804008DF857
:10092000070003208DF8050069460748FFF75FFFC1
:1009300040210448FFF7CFFF40210348FFF7CBFFDA
:100940001CBD0000000402400010024000BFFEE792
:1009500010B5012000F04EFD01200B4908600B4945
:10096000C1F89802052000F00FFD0020064908603C
:10097000052000F009FD00200449C1F89802052077
:1009800000F002FD10BD00009C8241420080414207
:1009900010B5012000F02EFD00200B4908600B4926
:1009A000C1F89802052000F0EFFC01200649091F5C
:1009B0000860052000F0E8FC01200449C1F89C0211
:1009C000052000F0E1FC10BD9C82414200804142C4
:1009D00010B50024002000F00DFD01200949086039
:1009E000052000F0D1FC0848D0F81C0210B1FFF738
:1009F000CFFF0124002003490860052000F0C4FC5B
:100A000010BD000098824142008041421CB5012186
:100A1000112000F049F91C20009000208DF80400FE
:100A20008DF8070003208DF8050069460448FFF79C
:100A3000DEFE1C20009069460248FFF7D8FE1CBD70
:100A400000000240001002401CB50121302000F0DF
:100A50002BF94FF4C060009001208DF804000020B5
:100A60008DF806008DF8070003208DF80500694613
:100A70000A48FFF7BCFE4FF4C040009069460848A2
:100A8000FFF7B5FE4FF4C0610448FFF726FF4FF4AF
:100A9000C0410348FFF721FF1CBD000000140240C5
:100AA0000010024000BFFEE77047000070B5002153
:100AB00000230F22C4781CB3174C246804F4E064AC
:100AC000C4F5E064C4F30721C1F10404E3B20A41B0
:100AD00044789C40E1B28478144021430C07210EF5
:100AE0000E4C05786155047804F01F050124AC40D4
:100AF00005786D11AD0005F1E025C5F8004109E06C
:100B0000047804F01F050124AC40054D06787611E9
:100B100045F8264070BD00000CED00E000E400E068
:100B200080E100E070B5002418E004F1B00000217D
:100B300000F0ACF80021084600F0A8F800211020D1
:100B400000F0A4F8002505E00121002000F09EF847
:100B5000681CC5B2802DF7DB601CC4B2082CE4DB36
:100B600070BD000010B50121082000F09DF8402064
:100B700043490860012008710020887103204871F2
:100B80000020C8713F48FFF732FE80203C490860D2
:100B90000020C8713B48FFF72AFE01203A4908604F
:100BA000C82000F0CBFB0021AE2000F06FF8002140
:100BB000084600F06BF80021102000F067F80021D3
:100BC000402000F063F80021B02000F05FF8002121
:100BD000812000F05BF80021FF2000F057F8002191
:100BE000A12000F053F80021A62000F04FF80021CA
:100BF000A82000F04BF800213F2000F047F800212A
:100C0000C82000F043F80021D32000F03FF8002175
:100C1000084600F03BF80021D52000F037F800210D
:100C2000802000F033F80021D82000F02FF80021B8
:100C3000052000F02BF80021D92000F027F8002132
:100C4000F12000F023F80021DA2000F01FF8002145
:100C5000122000F01BF80021DB2000F017F8002123
:100C6000302000F013F800218D2000F00FF8002153
:100C7000142000F00BF80021AF2000F007F810BDA1
:100C8000B8020020000C02409882414270B5044630
:100C90000D461DB1E0B200F037FB02E0E0B200F01B
:100CA0001DFB70BD7047000029B1064A126802435F
:100CB000044B1A6004E0034A12688243014B1A6035
:100CC000704700003038024029B1064A12680243DA
:100CD000044B1A6004E0034A12688243014B1A6015
:100CE0007047000044380240F0B500210022002483
:100CF000022500260223324F3F6807F00C0121B184
:100D0000042905D0082937D105E02E4F076036E0C9
:100D10002D4F076033E02A4F3F1F3F68C7F38056CF
:100D2000274F3F1F3F6807F03F036EB1264FB7FBC9
:100D3000F3F7DFF88CC0ACF1040CDCF800C0CCF3A6
:100D4000881C07FB0CF40CE01E4FB7FBF3F7DFF831
:100D500070C0ACF1040CDCF800C0CCF3881C07FBBD
:100D60000CF4174F3F1F3F68C7F301477F1C7D00FE
:100D7000B4FBF5F7076002E0124F076000BF00BF49
:100D80000F4F3F6807F0F0010909104F7A5C0768C0
:100D9000D74047600A4F3F6807F4E051890A0B4F7C
:100DA0007A5C4768D7408760054F3F6807F4604129
:100DB000490B064F7A5C4768D740C760F0BD00001A
:100DC000083802400024F40000127A0014000020C9
:100DD000704700000CB50020019000903448006876
:100DE00040F480303249086000BF3148006800F4A8
:100DF000003000900198401C0190009818B90198AB
:100E0000B0F5A04FF1D12A48006800F4003010B1CD
:100E10000120009001E0002000900098012846D1B8
:100E200023484030006840F080502149403108603C
:100E30002048006840F440401E4908601C480830C3
:100E400000681B49083108600846006840F400400B
:100E500008600846006840F4A05008601648091F62
:100E60000860081F006840F08070091F086000BF1C
:100E70000F48006800F000700028F9D040F20570BB
:100E80000E4908600A480830006820F0030008494D
:100E9000083108600846006840F00200086000BFA2
:100EA00003480830006800F00C000828F8D10CBD99
:100EB000003802400070004008544007003C0240E7
:100EC0007047000010B51548006840F470001349E1
:100ED00008601348006840F00100114908600020D4
:100EE0000F49083108600E4800680E4908400C4957
:100EF00008600D48091D0860081F006820F4802064
:100F0000091F0860002006490C310860FFF762FFE6
:100F10004FF0006001498039086010BD88ED00E0A5
:100F200000380240FFFFF6FE1030002410B540F2FA
:100F30002551254800F0D6F8012843D1224800F079
:100F40008BF9C1B2214802680068401C1F4B186031
:100F50001F488154184600681E49086018460068FA
:100F6000401E1B49085C402827D118460068801E97
:100F7000085C402821D10020174908600CE0144883
:100F800015490968405C1549134A1268885412488B
:100F90000068401C104908600C480068801E0E491B
:100FA00009688842EBDC01200D490860802108486F
:100FB000FFF700FA00200549086040F22551024879
:100FC00000F068F810BD000000100140240000206F
:100FD000400300203000002028000020C002002034
:100FE0002C00002010B588B0044601211020FFF726
:100FF0006BFE01210846FFF757FE0722092123480F
:10100000FFF73DFC07220A212048FFF738FC0220A9
:101010008DF81C0000208DF81E0003208DF81D00A7
:1010200001208DF81F004FF4C060069006A91748F4
:10103000FFF7DDFB02940020ADF814000C20ADF8A2
:1010400012000020ADF81000ADF80E00ADF80C0055
:1010500002A90F4800F096F801210D4800F029F888
:10106000012240F225510A4800F066F825208DF84B
:10107000040001208DF807008DF805008DF80600AA
:1010800001A8FFF713FD08B010BD000000000240EA
:101090000010014010B50022002340F66A14A1425E
:1010A00000D100BF0A1201249440A3B2DC430480A3
:1010B00010BD21B1828942F40052828104E082890C
:1010C0004DF6FF731A408281704702460020B1F549
:1010D000007F00D100BF13880B400BB1012000E05E
:1010E0000020704770B50246002400230025002030
:1010F00040F66A16B14200D100BFC1F3421501F0BB
:101100001F03012606FA03F3012D02D1968933400D
:1011100006E0022D02D1168A334001E0968A334060
:101120000C12012606FA04F41688344013B10CB1EF
:10113000012000E0002070BDF0B503460024002629
:101140000025002040F66A17B94200D100BF1846BA
:10115000C1F3421401F01F06012707FA06F5012C1E
:1011600001D10C3004E0022C01D1103000E0143029
:101170001AB107682F43076002E00768AF430760B2
:10118000F0BD00002DE9FF4705460E460024A146AC
:1011900000BFA046B08900B100BF2C8A24F440549F
:1011A000F08804432C82AC8941F20C608443B088FF
:1011B00031890843718908430443AC81AC8A24F423
:1011C0004074B0890443AC826846FFF78DFD204827
:1011D000854202D01F48854202D1DDF80C9001E023
:1011E000DDF80890A88900F4004040B109EBC9007F
:1011F00000EB091031684900B0FBF1F707E009EB9B
:10120000C90000EB091031688900B0FBF1F76420D8
:10121000B7FBF0F004012009642101FB1078A889D4
:1012200000F4004040B1322000EBC800B0FBF1F008
:1012300000F00700044308E0322000EB08106421AE
:10124000B0FBF1F000F00F0004432C81BDE8FF87F4
:10125000001001400014014001468888C0F30800D6
:101260007047C1F308028280704700BFFEE70000AC
:1012700070B505460024012000F0BCF80020154997
:1012800008601549C1F89802052000F07DF8072490
:101290001CE00120A040284018B101200D49086041
:1012A00002E000200B490860052000F06DF80120E5
:1012B0000849091F0860052000F066F8002006496B
:1012C000C1F89802052000F05FF8641E002CE0DAF7
:1012D00070BD00009C8241420080414210B504462E
:1012E000FFF736FB7820FFF7C3FFFFF771FB002005
:1012F000FFF7BEFFFFF76CFB2046FFF7B9FFFFF7D4
:1013000067FBFFF745FB10BD10B50446FFF720FB58
:101310007820FFF7ADFFFFF75BFB4020FFF7A8FF4A
:10132000FFF756FB2046FFF7A3FFFFF751FBFFF740
:101330002FFB10BD014600BF002070471DE00021BB
:101340004FF0E02211610F490968C9084FF47A7221
:10135000B1FBF2F14FF0E0225161002191610121D6
:10136000116100BF4FF0E021096901F480310029CB
:10137000F8D000214FF0E02211610100A0F101003E
:10138000DDD170470000002000214FF0E022116104
:101390000D490968C9080D4AB1FBF2F141434FF00C
:1013A000E0225161002191610121116100BF4FF0E4
:1013B000E021096901F480310029F8D000214FF0C3
:1013C000E0221161704700000000002040420F0041
:1013D00070B504460D46A1B20548FFF742FF00BFB5
:1013E00080210348FFF771FE0028F9D0204670BD28
:1013F0000010014010B5044680200A490860002012
:10140000C871012C06D108460471002088710320A0
:10141000487102E000200349087102490248FFF7C1
:10142000E6F910BDB802002000040240FFF70CFBF3
:10143000FFF7ECFAFFF7C2F84FF41650FFF7D2FDB2
:10144000FFF74EFAFFF788F9FFF78CFBFFF76AFB0F
:1014500001E0FFF7A1F9FCE74FF04070E1EE100A60
:10146000704700008414000800000020C002000043
:10147000C4010008D4150008C00200206007000065
:10148000280200085006007A030A000160090102E0
:101490000304060708090CA110E101100B106002FB
:1014A0008C00445454547F04F3444020000E120432
:1014B000047E010000FF15151555957F41100502AA
:1014C000027A4A010007107A02027E02021F100609
:1014D0000101013D250110053D41817F0CF1800096
:1014E000101020242424FE23222020FF20222CA0C0
:1014F00020A1F00F0848847F02414020130C1422E1
:1015000041F84000101080642C342424EC32222254
:10151000322E23A260E1000F1041219189874D55A1
:101520002525554D81808020000F108060F80740F0
:1015300020180F08C808082818C011FD000B10005B
:10154000100C0340807F00010620000F10808444AF
:101550004424140CFF0C1424444484601208012019
:1015600008094989790D0B090BF19F100B402214D2
:1015700008F42210CC4B48800110DF001011000845
:101580004482413F00000F04044F80403FBF2009C8
:1015900041211D214141FF4901061043C0100500B2
:1015A00040C05F1C127F0404054F4F60C000000460
:1015B0000F101010F01F10F000808282E2928A86D5
:1015C000001007402215081661870A13803E71013A
:0415D0000000000017
:040000050800018965
:00000001FF
