:020000040800F2
:100000008814002069020008E5060008350500088C
:10001000E1060008E5030008EB10000800000000FE
:10002000000000000000000000000000750C000847
:10003000E9030008000000004B0B0008650D0008F4
:10004000830200088302000883020008830200087C
:10005000830200088302000883020008830200086C
:10006000830200088302000883020008830200085C
:10007000830200088302000883020008830200084C
:10008000830200088302000883020008830200083C
:10009000830200088302000883020008830200082C
:1000A000830200088302000883020008830200081C
:1000B000830200088302000883020008830200080C
:1000C00083020008830200088302000883020008FC
:1000D00083020008D10D0008830200088302000893
:1000E00083020008830200088302000883020008DC
:1000F00083020008830200088302000883020008CC
:1001000083020008830200088302000883020008BB
:1001100083020008830200088302000883020008AB
:10012000830200088302000883020008830200089B
:10013000830200088302000883020008830200088B
:10014000830200088302000883020008830200087B
:10015000830200088302000883020008830200086B
:10016000830200088302000883020008830200085B
:10017000830200088302000883020008830200084B
:10018000830200088302000800F002F800F05CF827
:100190000AA090E8000C82448344AAF10107DA45E2
:1001A00001D100F051F8AFF2090EBAE80F0013F0D8
:1001B000010F18BFFB1A43F001031847E4190000B0
:1001C000041A00000A444FF0000C10F8013B13F031
:1001D000070408BF10F8014B1D1108BF10F8015BA0
:1001E000641E05D010F8016B641E01F8016BF9D193
:1001F00013F0080F1EBF10F8014BAD1C0C1B09D1EA
:100200006D1E58BF01F801CBFAD505E014F8016B5B
:1002100001F8016B6D1EF9D59142D6D370470000ED
:100220000023002400250026103A28BF78C1FBD8FF
:10023000520728BF30C148BF0B6070471FB501F09F
:100240009EF81FBD10B510BD00F080F81146FFF7F5
:10025000F5FF01F019F800F09EF803B4FFF7F2FF84
:1002600003BC00F0A7FF0000094880470948004789
:10027000FEE7FEE7FEE7FEE7FEE7FEE7FEE7FEE756
:10028000FEE7FEE704480549054A064B70470000B3
:10029000690D000889010008880E002088140020DC
:1002A000881000208810002070474FF000020429B9
:1002B000C0F0128010F0030C00F01B80CCF1040C95
:1002C000BCF1020F18BF00F8012BA8BF20F8022BC9
:1002D000A1EB0C0100F00DB85FEAC17C24BF00F86F
:1002E000012B00F8012B48BF00F8012B70474FF09D
:1002F000000200B5134694469646203922BFA0E876
:100300000C50A0E80C50B1F12001BFF4F7AF090781
:1003100028BFA0E80C5048BF0CC05DF804EB890072
:1003200028BF40F8042B08BF704748BF20F8022BB5
:1003300011F0804F18BF00F8012B704770477047CD
:100340007047704700487047240E00207546FFF73D
:10035000F9FFAE4605006946534620F00700854682
:1003600018B020B5FFF78EFFBDE820404FF0000623
:100370004FF000074FF000084FF0000B21F007018D
:10038000AC46ACE8C009ACE8C009ACE8C009ACE8D0
:10039000C0098D4670470446AFF300802046FFF742
:1003A0005CFF00001CB50121302000F0CFFB4FF4B2
:1003B0008070009001208DF8040000208DF8060068
:1003C0008DF8070003208DF805006946044800F009
:1003D0000CF84FF48071024800F072F81CBD000068
:1003E0000014024000BFFEE77047F0B50A46002146
:1003F0000023002400BF3DE0012505FA01F3156844
:1004000005EA03049C4234D105684F000326BE4030
:10041000B543056015794E00B54006683543056063
:100420001579012D02D01579022D16D185684F005E
:100430000326BE40B543856055794E00B5408668B9
:1004400035438560456801268E40B5434560456863
:1004500096798E40B6B235434560C5684F00032695
:10046000BE40B543C560D5794E00B540C66835433A
:10047000C560491C1029BFD3F0BDF0B5002300248E
:100480004D07ED0E02FA05F3CE1000F1200555F8E8
:1004900026504E07F70E0F26BE40B543CF1000F191
:1004A000200646F82750CE1000F1200555F82650BA
:1004B00045EA0304CE1000F1200545F82640F0BDC2
:1004C00041837047018370471CB50121022000F071
:1004D0003DFB0121102000F039FB4020009001205D
:1004E0008DF8040000208DF806008DF80700032029
:1004F0008DF8050069460D48FFF777FF4020009012
:1005000000208DF804008DF8070003208DF8050009
:1005100069460748FFF769FF40210448FFF7D0FF0D
:1005200040210348FFF7CCFF1CBD0000000402403F
:100530000010024000BFFEE710B5012000F088FE69
:1005400001200B4908600B49C1F89802052000F012
:100550005BFE002006490860052000F055FE0020E3
:100560000449C1F89802052000F04EFE10BD0000BD
:100570009C8241420080414210B5012000F068FE9B
:1005800000200B4908600B49C1F89802052000F0D3
:100590003BFE01200649091F0860052000F034FEDB
:1005A00001200449C1F89C02052000F02DFE10BD79
:1005B0009C8241420080414210B50024002000F09E
:1005C00047FE012009490860052000F01DFE08488B
:1005D000D0F81C0210B1FFF7CFFF0124002003491F
:1005E0000860052000F010FE10BD00009882414216
:1005F000008041421CB50121112000F0A7FA1C2007
:10060000009000208DF804008DF8070003208DF87D
:10061000050069460448FFF7E8FE1C200090694683
:100620000248FFF7E2FE1CBD00000240001002403D
:100630001CB50121302000F089FA4FF4C060009011
:1006400001208DF8040000208DF806008DF80700C9
:1006500003208DF8050069460A48FFF7C6FE4FF4EF
:10066000C040009069460848FFF7BFFE4FF4C061E4
:100670000448FFF727FF4FF4C0410348FFF722FF6C
:100680001CBD0000001402400010024010B50446DA
:10069000012C06D0022C0AD0032C0ED0042C18D129
:1006A00011E04FF400710C48FFF70AFF11E04FF41E
:1006B00080610948FFF704FF0BE04FF40051074841
:1006C000FFF7FEFE05E04FF480410448FFF7F8FE17
:1006D00000BF00BF10BD0000001402400010024027
:1006E00000BFFEE77047000070B5002100230F2215
:1006F000C4781CB3174C246804F4E064C4F5E064C7
:10070000C4F30721C1F10404E3B20A4144789C40D8
:10071000E1B28478144021430C07210E0E4C057879
:100720006155047804F01F050124AC4005786D1173
:10073000AD0005F1E025C5F8004109E0047804F0BA
:100740001F050124AC40054D0678761145F826407A
:1007500070BD00000CED00E000E400E080E100E08E
:1007600070B5002418E004F1B000002100F0E1F9B8
:100770000021084600F0DDF90021102000F0D9F931
:10078000002505E00121002000F0D3F9681CC5B266
:10079000802DF7DB601CC4B2082CE4DB70BD2DE9B2
:1007A000F05F06460F4690461C46DDF828A04FF045
:1007B000000BE11704EB5171C910A4EBC10131B971
:1007C0002046E11704EB5171C1F3C70506E020464E
:1007D000E11704EB5171C910491CCDB23D4615E03B
:1007E0002946304600F0AAF8B1460BE059460BF115
:1007F000010B1AF80100012100F09BF909F1010039
:1008000000F0FF09C145F1DB681CC5B2A542E7DB7A
:10081000BDE8F09F10B50121082000F097F94020B5
:100820004349086001200871002088710320487145
:100830000020C8713F48FFF7D8FD80203C49086080
:100840000020C8713B48FFF7D0FD01203A490860FD
:10085000C82000F0B3FC0021AE2000F06AF90021AE
:10086000084600F066F90021102000F062F900212E
:10087000402000F05EF90021B02000F05AF900217C
:10088000812000F056F90021FF2000F052F90021EC
:10089000A12000F04EF90021A62000F04AF9002125
:1008A000A82000F046F900213F2000F042F9002185
:1008B000C82000F03EF90021D32000F03AF90021D1
:1008C000084600F036F90021D52000F032F9002169
:1008D000802000F02EF90021D82000F02AF9002114
:1008E000052000F026F90021D92000F022F900218E
:1008F000F12000F01EF90021DA2000F01AF90021A1
:10090000122000F016F90021DB2000F012F900217E
:10091000302000F00EF900218D2000F00AF90021AE
:10092000142000F006F90021AF2000F002F910BDFC
:100930001C0D0020000C02409882414270B5044614
:100940000D4605F1B000002100F0F3F8102141EA56
:100950001410002100F0EDF804F00F00002100F069
:10096000E8F870BD2DE9F04180460E461546002797
:1009700031464046FFF7E2FF00240AE0124A02EB4C
:100980008511085D012100F0D4F8781CC7B2601C05
:10099000C4B2102CF2DB701CC1B24046FFF7CEFF90
:1009A00000240CE06900491C074A02EB4111085D74
:1009B000012100F0BEF8781CC7B2601CC4B2102C34
:1009C000F0DBBDE8F08100009C0A00202DE9F04733
:1009D00007460E469046994600250024A8F12000BF
:1009E000C5B27F2F02DD0027B01CC6B2B9F1100FCF
:1009F00024D131463846FFF7A1FF002408E004EB7C
:100A00000511194A505C012100F093F8601CC4B232
:100A1000082CF4DB701CC1B23846FFF78FFF0024AE
:100A200009E004EB051108310F4A505C012100F088
:100A300080F8601CC4B2082CF3DB12E03146384663
:100A4000FFF77CFF00240AE005EB4501074A02EBB3
:100A50004101085D012100F06CF8601CC4B2062C55
:100A6000F2DBBDE8F0870000B0150008881300082D
:100A70002DE9FF5F074691461E460E9D4FF0000A86
:100A8000002435E0301B401EC1B20A2000F06CFC8F
:100A9000B9FBF0F00A21B0FBF1F201FB1208BAF148
:100AA000000F14D1701EA04211DDB8F1000F0CD15F
:100AB000AB4605EBDB71491001FB0471C8B22B4654
:100AC00020220199FFF782FF10E04FF0010AAB46A8
:100AD00005EBDB71491001FB0471C8B208F130016C
:100AE000CAB22B460199FFF771FF00BF601CC4B268
:100AF000B442C7DBBDE8FF9F2DE9F04104460F4635
:100B00001546984600260FE0AA5D43463946204622
:100B1000FFF75CFF04F10800C4B2782C02DD00246A
:100B2000B81CC7B2701CC6B2A85D0028ECD1BDE8E5
:100B3000F08170B504460D461DB1E0B200F024FB13
:100B400002E0E0B200F00AFB70BD704729B1064A2E
:100B500012680243044B1A6004E0034A126882439D
:100B6000014B1A60704700003038024029B1064A34
:100B700012680243044B1A6004E0034A126882437D
:100B8000014B1A607047000044380240F0B5002164
:100B900000220024022500260223324F3F6807F07E
:100BA0000C0121B1042905D0082937D105E02E4FC9
:100BB000076036E02D4F076033E02A4F3F1F3F6844
:100BC000C7F38056274F3F1F3F6807F03F036EB1C2
:100BD000264FB7FBF3F7DFF88CC0ACF1040CDCF860
:100BE00000C0CCF3881C07FB0CF40CE01E4FB7FBD5
:100BF000F3F7DFF870C0ACF1040CDCF800C0CCF304
:100C0000881C07FB0CF4174F3F1F3F68C7F30147D1
:100C10007F1C7D00B4FBF5F7076002E0124F076010
:100C200000BF00BF0F4F3F6807F0F0010909104FE8
:100C30007A5C0768D74047600A4F3F6807F4E05185
:100C4000890A0B4F7A5C4768D7408760054F3F6839
:100C500007F46041490B064F7A5C4768D740C7608C
:100C6000F0BD0000083802400024F40000127A00B1
:100C7000780A0020704700000CB500200190009019
:100C80003448006840F480303249086000BF314881
:100C9000006800F4003000900198401C019000981A
:100CA00018B90198B0F5A04FF1D12A48006800F4B6
:100CB000003010B10120009001E000200090009869
:100CC000012846D123484030006840F08050214937
:100CD000403108602048006840F440401E490860E8
:100CE0001C48083000681B49083108600846006845
:100CF00040F4004008600846006840F4A0500860D6
:100D00001648091F0860081F006840F08070091F1E
:100D1000086000BF0F48006800F000700028F9D09C
:100D200040F205700E4908600A480830006820F05B
:100D300003000849083108600846006840F00200D6
:100D4000086000BF03480830006800F00C00082865
:100D5000F8D10CBD00380240007000400854400734
:100D6000003C02407047000010B51548006840F490
:100D70007000134908601348006840F001001149F1
:100D8000086000200F49083108600E4800680E49CD
:100D900008400C4908600D48091D0860081F0068DC
:100DA00020F48020091F0860002006490C310860EB
:100DB000FFF762FF4FF0006001498039086010BD05
:100DC00088ED00E000380240FFFFF6FE10300024FE
:100DD00010B540F22551254800F0C9F8012843D14B
:100DE000224800F07DF9C1B2214802680068401C29
:100DF0001F4B18601F488154184600681E49086040
:100E000018460068401E1B49085C402827D1184638
:100E10000068801E085C402821D100201749086026
:100E20000CE0144815490968405C1549134A1268DA
:100E3000885412480068401C104908600C4800683B
:100E4000801E0E4909688842EBDC01200D490860CC
:100E500080210848FFF729FA00200549086040F280
:100E60002551024800F068F810BD00000010014054
:100E7000880A0020A40D0020940A00208C0A00207B
:100E8000240D0020900A002010B588B004460121EE
:100E90001020FFF76BFE01210846FFF757FE0722DF
:100EA00009212348FFF7E9FA07220A212048FFF722
:100EB000E4FA02208DF81C0000208DF81E000320AB
:100EC0008DF81D0001208DF81F004FF4C0600690C2
:100ED00006A91748FFF789FA02940020ADF814001C
:100EE0000C20ADF812000020ADF81000ADF80E0097
:100EF000ADF80C0002A90F4800F088F801210D4858
:100F000000F029F8012240F225510A4800F059F872
:100F100025208DF8040001208DF807008DF80500CC
:100F20008DF8060001A8FFF7DFFB08B010BD000038
:100F3000000002400010014010B50022002340F6DE
:100F40006A14A14200D100BF0A1201249440A3B246
:100F5000DC43048010BD21B1828942F400528281B9
:100F600004E082894DF6FF731A408281704770B5A4
:100F70000246002400230025002040F66A16B142F4
:100F800000D100BFC1F3421501F01F03012606FA8C
:100F900003F3012D02D19689334006E0022D02D1E0
:100FA000168A334001E0968A33400C12012606FA75
:100FB00004F41688344013B10CB1012000E0002085
:100FC00070BDF0B50346002400260025002040F641
:100FD0006A17B94200D100BF1846C1F3421401F0AC
:100FE0001F06012707FA06F5012C01D10C3004E099
:100FF000022C01D1103000E014301AB107682F43E1
:10100000076002E00768AF430760F0BD2DE9FF47C6
:1010100005460E460024A14600BFA046B08900B197
:1010200000BF2C8A24F44054F08804432C82AC89FD
:1010300041F20C608443B0883189084371890843C8
:101040000443AC81AC8A24F44074B0890443AC827C
:101050006846FFF79BFD2048854202D01F48854225
:1010600002D1DDF80C9001E0DDF80890A88900F4C9
:10107000004040B109EBC90000EB0910316849009C
:10108000B0FBF1F707E009EBC90000EB091031688C
:101090008900B0FBF1F76420B7FBF0F004012009F0
:1010A000642101FB1078A88900F4004040B132208F
:1010B00000EBC800B0FBF1F000F00700044308E0CB
:1010C000322000EB08106421B0FBF1F000F00F00BB
:1010D00004432C81BDE8FF8700100140001401404B
:1010E00001468888C0F30800704700BFFEE7000093
:1010F00070B505460024012000F0AAF8002015492B
:1011000008601549C1F89802052000F07DF8072411
:101110001CE00120A040284018B101200D490860C2
:1011200002E000200B490860052000F06DF8012066
:101130000849091F0860052000F066F800200649EC
:10114000C1F89802052000F05FF8641E002CE0DA78
:1011500070BD00009C8241420080414210B50446AF
:10116000FFF7EAF97820FFF7C3FFFFF725FA002021
:10117000FFF7BEFFFFF720FA2046FFF7B9FFFFF7A2
:101180001BFAFFF7F9F910BD10B50446FFF7D4F9C3
:101190007820FFF7ADFFFFF70FFA4020FFF7A8FF19
:1011A000FFF70AFA2046FFF7A3FFFFF705FAFFF75C
:1011B000E3F910BD014600BF002070471DE000218B
:1011C0004FF0E02211610F490968C9084FF47A72A3
:1011D000B1FBF2F14FF0E022516100219161012158
:1011E000116100BF4FF0E021096901F4803100294D
:1011F000F8D000214FF0E02211610100A0F10100C0
:10120000DDD17047640A002000214FF0E022116117
:101210000D490968C9080D4AB1FBF2F141434FF08D
:10122000E0225161002191610121116100BF4FF065
:10123000E021096901F480310029F8D000214FF044
:10124000E022116170470000640A002040420F0054
:1012500010B5044680200A4908600020C871012C9E
:1012600006D108460471002088710320487102E00D
:1012700000200349087102490248FFF7B6F810BD83
:101280001C0D00200004024008B500BFFFF7D0F994
:10129000FFF7B0F9FFF786F84FF41650FFF7F4FDAB
:1012A000FFF712F9FFF7B6FAFFF75AFA50E00120FC
:1012B000FFF7ECF9102003234FF402720021009095
:1012C0000846FFF7D5FB1023662200211920FFF7FF
:1012D0007DFB1023682200212520FFF777FB1023D8
:1012E000712200213120FFF771FB102319A2022186
:1012F0000020FFF701FC002205211046FFF732FB1A
:10130000012205211220FFF72DFB022205212420B6
:10131000FFF728FB032205213620FFF723FB0422D9
:1013200005214820FFF71EFBFFF71AFA4FF4FA7069
:10133000FFF744FF0B480823802200210090084655
:10134000FFF72DFA4FF4FA70FFF738FFFFF708FAAE
:10135000ADE700006E69207A68656E20736875617C
:10136000690000002007002010B50246012000E0BF
:1013700050430B00A1F10104E1B2F9D110BD4FF0CF
:101380004070E1EE100A704700000000000000000D
:10139000002F000000000700070000147F147F14D6
:1013A00000242A7F2A12006264081323003649555C
:1013B000225000000503000000001C224100000034
:1013C00041221C000014083E08140008083E0808CA
:1013D000000000A060000008080808080000606025
:1013E0000000002010080402003E5149453E000064
:1013F000427F4000004261514946002141454B3146
:10140000001814127F10002745454539003C4A4911
:101410004930000171090503003649494936000683
:101420004949291E000036360000000056360000EB
:101430000008142241000014141414140000412266
:10144000140800020151090600324959513E007C3E
:101450001211127C007F49494936003E4141412228
:10146000007F4141221C007F49494941007F090911
:101470000901003E4149497A007F0808087F0000C1
:10148000417F4100002040413F01007F081422417C
:10149000007F40404040007F020C027F007F040834
:1014A000107F003E4141413E007F09090906003E90
:1014B0004151215E007F09192946004649494931B9
:1014C0000001017F0101003F4040403F001F2040DC
:1014D000201F003F4038403F00631408146300079A
:1014E0000870080700615149454300007F414100F1
:1014F00000552A552A55000041417F000004020191
:10150000020400404040404000000102040000206E
:1015100054545478007F48444438003844444420AC
:1015200000384444487F00385454541800087E0959
:1015300001020018A4A4A47C007F08040478000021
:10154000447D4000004080847D00007F10284400DE
:101550000000417F4000007C04180478007C0804EF
:10156000047800384444443800FC2424241800182B
:10157000242418FC007C0804040800485454542017
:1015800000043F444020003C4040207C001C2040A0
:10159000201C003C4030403C004428102844001CE3
:1015A000A0A0A07C004464544C44141414141414DB
:1015B000000000000000000000000000000000002B
:1015C000000000F8000000000000003330000000C0
:1015D00000100C06100C06000000000000000000C7
:1015E00040C07840C0784000043F04043F04040039
:1015F000007088FC08300000001820FF211E000049
:10160000F008F000E018000000211C031E211E005D
:1016100000F00888700000001E21232419272110E3
:1016200010160E0000000000000000000000000086
:10163000000000E01804020000000007182040002D
:1016400000020418E000000000402018070000001D
:10165000404080F0804040000202010F0102020081
:10166000000000F0000000000101011F0101010065
:10167000000000000000000080B0700000000000CA
:101680000000000000000000000101010101010153
:1016900000000000000000000030300000000000EA
:1016A00000000000806018040060180601000000BF
:1016B00000E010080810E000000F102020100F00BC
:1016C000001010F8000000000020203F2020000043
:1016D000007008080888700000302824222130009B
:1016E00000300888884830000018202020110E00A3
:1016F0000000C02010F8000000070424243F24004C
:1017000000F80888880808000019212020110E0020
:1017100000E0108888180000000F112020110E0032
:1017200000380808C83808000000003F000000002A
:101730000070880808887000001C222121221C00EB
:1017400000E010080810E0000000312222110F0014
:10175000000000C0C00000000000003030000000A9
:101760000000008000000000000080600000000019
:101770000000804020100800000102040810200032
:10178000404040404040400004040404040404007D
:101790000008102040800000002010080402010012
:1017A000007048080808F000000000303601000012
:1017B000C030C828E810E0000718272423140B00C5
:1017C0000000C038E0000000203C2302022738203F
:1017D00008F8888888700000203F202020110E0023
:1017E000C03008080808380007182020201008001A
:1017F00008F808080810E000203F202020100F0003
:1018000008F88888E8081000203F202023201800CE
:1018100008F88888E8081000203F20000300000036
:10182000C03008080838000007182020221E0200D7
:1018300008F808000008F808203F210101213F2096
:10184000000808F8080800000020203F20200000C1
:1018500000000808F8080800C08080807F000000B1
:1018600008F888C028180800203F200126382000EA
:1018700008F8080000000000203F20202020300051
:1018800008F8F800F8F80800203F003F003F20006B
:1018900008F830C00008F808203F200007183F0073
:1018A000E01008080810E0000F10202020100F00A2
:1018B00008F808080808F000203F21010101000095
:1018C000E01008080810E0000F18242438504F00DA
:1018D00008F8888888887000203F2000030C30209A
:1018E00000708808080838000038202121221C00D8
:1018F000180808F8080818000000203F2000000021
:1019000008F808000008F808001F202020201F0009
:101910000878880000C83808000007380E01000069
:10192000F80800F80008F800033C0700073C030033
:10193000081868808068180820302C03032C302099
:101940000838C800C83808000000203F2000000008
:1019500010080808C8380800203826212020180060
:10196000000000FE020202000000007F4040400034
:10197000000C30C000000000000000010638C0006C
:1019800000020202FE000000004040407F00000014
:101990000000040202020400000000000000000039
:1019A0000000000000000000808080808080808037
:1019B000000202040000000000000000000000001F
:1019C00000008080808000000019242222223F2015
:1019D00008F8008080000000003F112020110E0058
:1019E0000000008080800000000E112020201100E7
:1019F000000000808088F800000E112020103F2099
:101A00000000808080800000001F2222222213001C
:101A1000008080F0888888180020203F2020000067
:101A20000000808080808000006B9494949360001C
:101A300008F8008080800000203F210000203F2027
:101A400000809898000000000020203F2020000027
:101A5000000000809898000000C08080807F000017
:101A600008F8000080808000203F24022D302000F4
:101A7000000808F8000000000020203F202000009F
:101A80008080808080808000203F20003F20003FB9
:101A90008080008080800000203F210000203F20C7
:101AA0000000808080800000001F202020201F0078
:101AB000808000808000000080FFA12020110E00A7
:101AC0000000008080808000000E112020A0FF8098
:101AD000808080008080800020203F212000010045
:101AE000000080808080800000332424242419009A
:101AF000008080E0808000000000001F20200000A7
:101B00008080000000808000001F202020103F20E7
:101B1000808080000080808000010E300806010077
:101B200080800080008080800F300C030C300F001C
:101B300000808000808080000020312E0E31200047
:101B4000808080000080808080818E701806010077
:101B500000808080808080000021302C2221300095
:101B600000000000807C020200000000003F4040B6
:101B700000000000FF00000000000000FF00000067
:101B80000002027C800000000040403F0000000096
:101B90000006010102020404000000000000000031
:101BA000C01B000800000020240D0000C401000834
:101BB000781F0008240D00206407000020020008A0
:101BC0000AFDFF0109FD0109FD01092001011320A2
:101BD0000D28AEE67C7CE4A47C7C447C7C300D0843
:101BE000ECEEAAECEC9EBE2C2632303DF2F604025E
:101BF0000123FEFE280824B4FEFEB4A4A406322469
:101C0000300B0424B4BCEC6662329282000D2E309C
:101C1000B8EE7610C8E8BA9EACE8C82E01011F1FC6
:101C20001501431F1F380C1F1F121F1F0F1F1613F4
:101C30001D1C0E512B101009180D02121A0A121E2B
:101C40001E020A1A120214200C190D05111F1F0181
:101C5000050D1B13000DA509090D0515180F070F1C
:101C60001F19191BFE02011D42C2423204B90BE2C8
:101C7000FE8B80800A790B51780C38FC3C3E1E1E8E
:101C80001E9F9F9F1F011C9F9F9E13CF1EFEFEFE47
:101C9000F8F82E011052FF28080603020346A01090
:101CA000017EA643020306195125F00E0101180812
:101CB000010204383804030A119C010EF08C392A01
:101CC0005E07080808479B2F808748080807444993
:101CD000010C17FCF8E085280987C4C4E4E4E4FC9F
:101CE000040118080505FD050504040F1DE4C4845E
:101CF000874D2936E780C0E0E3FCE054C03C031A7E
:101D00009E5D211A0F7B3C0808F8061B0809017923
:101D10000F48090F03070F1F3F7F7F84D2C0680E53
:101D2000F8FCFC3E1F1F0F070707030101ED4908E0
:101D30002C01FF0301191B490119F41E030C10208B
:101D4000408F4E804020100C7D29F53D0F0F0F0E67
:101D500001BD0F0FFF0201280CFF3C3C7C78F8F01E
:101D6000F0E0E0C0C70008180103071F1F2F064955
:101D7000C34C08081F0702170F031A0101BB7F405D
:101D8000015A7F3239CA01C79AFF010D40FDFD316A
:101D9000FF4F3AF74C1AFB044A7F574AF712B90132
:101DA000011F180EBC5FBE1D9E5C5D3C7E7E5E5EAC
:101DB0001E011A9C091B1F5E013818DEDF1E3EBF84
:101DC000BF3CBEBE1E5F7E3EBEBE3D3D3D3CBC9C9C
:101DD0009C9C54596F69010C36F7BF5FCEDAC00185
:101DE00029D03AEF550E17FEF7EDFFEF57182209ED
:101DF000FB46512F4E172FA787072FBFAF87B7B7C7
:101E0000878F8F0F0F6787870707074F4F4F272F42
:101E100001CC0F0F4FA819011EDFFFFF77E705D98F
:101E20000101E672644201847A030A68090102032F
:101E300004060708090CA9100110151060028C1E79
:101E4000445454547F04031144401C04047E5F0036
:101E50000814FF15151555957F1D02027A4A0107D2
:101E6000127A02027E02021E0101013D25011D3D82
:101E700041817F0C011100101220242424FE232212
:101E80002020FF20222CA020000F110848847F0270
:101E9000414020130C142241F800101280642C34AD
:101EA0002424EC322222322E23A260000F12412180
:101EB0009189874D552525554D818080080F1080CB
:101EC00060F8074020180F08C808082818C019FD36
:101ED0001117100C0340807F0B10010620080F1013
:101EE0008084444424140CFF0C1424444484601A59
:101EF00008012808094989790D0B090B0111180BF4
:101F000040221408F42210CC4B48800910DF11261F
:101F1000084482413F1F0F04044F804009F9802884
:101F20000941211D214141FF4901031243401C4049
:101F3000C05F1A1A7F0404134F60C0180A8060F84B
:101F4000074020180F08800A1028E0220112FF170E
:101F5000100C0340807F0B10010620171010F01F9B
:101F600010F0080911808282E2928A8680E01D15B5
:081F7000081661081940011C6C
:040000050800018965
:00000001FF
