:020000040800F2
:10000000586A002079020008F50D0008DD0A000892
:10001000F10D0008C50600087B2200080000000062
:10002000000000000000000000000000E51A0008C9
:100030007D0900080000000059190008591C00083B
:10004000930200089302000893020008930200083C
:10005000930200089302000893020008930200082C
:10006000930200089302000893020008930200081C
:10007000930200089302000893020008930200080C
:1000800093020008930200089302000893020008FC
:1000900093020008930200089302000893020008EC
:1000A00093020008930200089302000893020008DC
:1000B00093020008930200089302000893020008CC
:1000C00093020008930200089302000893020008BC
:1000D00093020008251E0008451F0008930200082F
:1000E000930200089302000893020008930200089C
:1000F000930200089302000893020008930200088C
:10010000930200089302000893020008930200087B
:10011000930200089302000893020008C51C00081F
:10012000930200089302000893020008930200085B
:10013000930200089302000893020008930200084B
:10014000930200089302000893020008930200083B
:10015000930200089302000893020008930200082B
:10016000930200089302000893020008930200081B
:10017000930200089302000893020008930200080B
:10018000930200089302000800F002F800F065F8FE
:100190000AA090E8000C82448344AAF10107DA45E2
:1001A00001D100F05AF8AFF2090EBAE80F0013F0CF
:1001B000010F18BFFB1A43F0010318477034000009
:1001C0009034000010F8013B0A4413F0030408BF08
:1001D00010F8014B1D1108BF10F8015B641E05D01B
:1001E00010F8016B641E01F8016BF9D1002D15D0D8
:1001F00010F8014B03F00C030C2BA1EB04040ABF15
:1002000010F8013BA4EB8314A4EB032405F10103D4
:1002100014F8016B5B1E01F8016BF9D5914238BFF0
:1002200010F8013BD1D3704700230024002500269D
:10023000103A28BF78C1FBD8520728BF30C148BF49
:100240000B607047642900F04580002070471FB59F
:1002500002F0D2FD1FBD10B510BD00F0DDF9114652
:10026000FFF7F5FF02F0F2F800F0FBF903B4FFF737
:10027000F2FF03BC02F06DF80948804709480047C7
:10028000FEE7FEE7FEE7FEE7FEE7FEE7FEE7FEE746
:10029000FEE7FEE704480549054A064B70470000A3
:1002A0005D1C00088901000858640020586A00207D
:1002B0005866002058660020704700000FB40449BB
:1002C00010B503AA029800F08DF910BC5DF814FB7C
:1002D000702800202DE9F041064600241068752999
:1002E000314616A510D0AFF30080002802DA404254
:1002F00013A507E031688A0701D512A502E0490776
:1003000004D511A5012401E0AFF3008000210A22E9
:1003100006F1240709E0B0FBF2FCB0FBF2F302FBAC
:100320001C00303078541846491C0028F3D123466D
:100330002A463046BDE8F04100F0E2B80000000077
:100340002D0000002B000000200000002DE9F05FD0
:10035000894604464FF0000ADFF874B1FB44C0F848
:1003600020A02046E1688847002874D0252806D0C0
:10037000D4E901219047206A401C2062F1E7002661
:100380005F462046E16888472028054607DB312D77
:1003900005D2781910F8200C08B10643F1E7B00730
:1003A00001D526F00406C4F81CA00027C4F818A044
:1003B0002A2D09D0284601F0C5FF38B304EB870881
:1003C000303DC8F8185019E059F8041B204604EBDA
:1003D00087029161E1688847012F054618D1E069DD
:1003E000002820DA26F020061DE0D8F8180000EBDF
:1003F000800005EB40003038C8F818002046E1685E
:100400008847054601F09EFF0028EED1012F0AD053
:100410002E2D08D12046E16888477F1C0546022F13
:1004200046F02006C4DBA069002803DA404246F00B
:100430000106A061F00701D026F010066C2D0BD04C
:10044000682D09D04C2D39D06A2D35D0742D35D07A
:100450007A2D33D016E038E0E1682F4620468847F1
:10046000B842054609D16C2F26D04FF48060E16870
:10047000064320468847054604E06C2F1AD04FF407
:10048000807006430DB3A5F14100192802D820352C
:1004900046F400664A462946204626604E46FFF747
:1004A000D1FE80B101280BD0F61D26F0070000F127
:1004B000080956E74020E4E78020D8E70020D6E787
:1004C00006F104094DE7284652E7206ABDE8F09F8F
:1004D000BA32000030B505460B462A4613F8014BE8
:1004E00012F8010B08B1A042F8D01CB1002802D0CC
:1004F0006D1CF1E7284630BD704770477047704764
:100500002DE9F0470D4699469246044600F124082D
:100510000168880604D5E06921F01001216000E03F
:100520000120A84201DD471B00E00027A1697A19DC
:1005300002EB0900081AA0612078C00602D4204608
:10054000AFF30080002608E0D4E901211AF8060084
:100550009047206A401C761C20624E45F4DB2078D0
:10056000C0060AD52046AFF3008006E0D4E9012199
:1005700030209047206A401C2062381EA7F10107F6
:10058000F4DC07E0D4E9012118F805009047206A5F
:10059000401C2062281EA5F10105F3DC2046AFF3C4
:1005A00000802078000602D50220BDE8F0870120F7
:1005B000FBE7000001694A1C02610878704700B53A
:1005C0008FB0CDE901310021059105497944CDE98C
:1005D000031011466846FFF7B9FE0FB000BD0000DA
:1005E000E5FFFFFF074B70B50D467B44FFF7E7FFC4
:1005F0000446284600F00CF810B14FF0FF3070BDF3
:10060000204670BD031E000000487047F4630020C0
:10061000007B00F0800070477546FFF7F5FFAE469F
:1006200005006946534620F00700854618B020B5FE
:10063000FFF730FEBDE820404FF000064FF0000706
:100640004FF000084FF0000B21F00701AC46ACE87A
:10065000C009ACE8C009ACE8C009ACE8C0098D46E7
:1006600070470446AFF300802046FFF7FFFD00000F
:1006700010B54FF48071024800F0F5F910BD00008C
:10068000001402401CB50121302001F067F94FF43D
:100690008070009001208DF8040000208DF8060085
:1006A0008DF8070003208DF805006946044800F026
:1006B00066F94FF48071024800F0D5F91CBD0000C6
:1006C0000014024000BFFEE71CB504464FF4007062
:1006D000009000208DF80700012C09D101208DF831
:1006E000040000208DF8060003208DF8050002E0CC
:1006F00000208DF804006946014800F040F91CBD57
:10070000001802402DE9F04704460025A9460120C3
:10071000FFF7DAFF4FF40071404800F0A4F914200D
:1007200001F01CFE4FF400713C4800F09EF91E20C1
:1007300001F03AFE0020FFF7C7FF00BF4FF4007141
:10074000364800F087F90128F8D0002509E001209B
:1007500001F02AFE6D1C642D03DB4FF0FF30BDE875
:10076000F0874FF400712D4800F074F90028EED0A6
:10077000002508E0012001F017FE6D1C642D02DB4E
:100780006FF00100EBE74FF40071244800F062F9CC
:100790000128EFD000262AE04FF00009002721E0D1
:1007A00000BF4FF400711D4800F054F90028F8D044
:1007B000282001F0F9FD4FF40071184800F04AF9C3
:1007C00001280ED1C7F10701884040EA090000F076
:1007D000FF0900BF4FF40071104800F03BF90128F9
:1007E000F8D07F1C082FDBDB04F80690761C052E62
:1007F000D2DB207861780844A1780844E17800EBE6
:100800000108207908F0FF01884202D06FF0020051
:10081000A5E7502001F0C8FD0020A0E70018024025
:100820001CB50121402001F099F84FF400700090B0
:1008300001208DF8040000208DF806008DF80700D7
:1008400003208DF805006946044800F098F84FF43D
:100850000071024800F009F91CBD000000180240B8
:100860002DE9FE43002001900290002401A8FFF72B
:1008700049FF04469DF806509DF804609DF80770F6
:100880009DF80580002C66D19DF8050000909DF82C
:1008900004309DF807209DF8061030A0FFF70EFDEC
:1008A00000F0E6FA032200211C2000F0C1FE042221
:1008B00000212E2000F0BCFE05220021402000F087
:1008C000B7FE06220021522000F0B2FE03232A22A6
:1008D0000021642000F0E0FE002203210E2000F041
:1008E000A7FE01220321202000F0A2FE10200223F7
:1008F0002A4603210090372000F020FF0A20012320
:100900003A46042100904B2000F018FF01220321F9
:100910005A2000F08DFE022205210E2000F088FEF4
:1009200001220521202000F083FE10200223324600
:1009300005210090372000F001FF0A2001234246E4
:10094000062100904B2000F0F9FE10230AA2052199
:100950005A2000F037FFBDE8FE83000074656D701B
:10096000A3BA25642E25642C2068756D69A3BA2569
:10097000642E25640D0A0000255348007047F0B529
:100980000A4600210023002400BF3DE0012505FAAE
:1009900001F3156805EA03049C4234D105684F0051
:1009A0000326BE40B543056015794E00B540066884
:1009B000354305601579012D02D01579022D16D128
:1009C00085684F000326BE40B543856055794E00CB
:1009D000B540866835438560456801268E40B5433D
:1009E0004560456896798E40B6B235434560C56826
:1009F0004F000326BE40B543C560D5794E00B540D3
:100A0000C6683543C560491C1029BFD3F0BDF0B599
:100A1000002300244D07ED0E02FA05F3CE1000F17D
:100A2000200555F826504E07F70E0F26BE40B54359
:100A3000CF1000F1200646F82750CE1000F1200517
:100A400055F8265045EA0304CE1000F1200545F87C
:100A50002640F0BD0246002013690B400BB1012077
:100A600000E0002070474183704701837047000019
:100A70001CB50121022000F071FF0121102000F0BF
:100A80006DFF4020009001208DF8040000208DF8BB
:100A900006008DF8070003208DF8050069460D4813
:100AA000FFF76DFF4020009000208DF804008DF8C6
:100AB000070003208DF8050069460748FFF75FFF30
:100AC00040210448FFF7CFFF40210348FFF7CBFF49
:100AD0001CBD0000000402400010024000BFFEE701
:100AE00010B5012001F096FC01200B4908600B496C
:100AF000C1F89802052001F057FC00200649086063
:100B0000052001F051FC00200449C1F8980205209D
:100B100001F04AFC10BD00009C824142008041422D
:100B200010B5012001F076FC00200B4908600B494C
:100B3000C1F89802052001F037FC01200649091F81
:100B40000860052001F030FC01200449C1F89C0236
:100B5000052001F029FC10BD9C82414200804142E9
:100B600010B50024002001F055FC0120094908605F
:100B7000052001F019FC0848D0F81C0210B1FFF75D
:100B8000CFFF0124002003490860052001F00CFC80
:100B900010BD000098824142008041427CB505466C
:100BA000EF208DF8000001208DF801001A48006840
:100BB000000E8DF8020018480068000C8DF8030044
:100BC00015480088000A8DF80400134800788DF855
:100BD000050007208DF8060000208DF807000F495A
:100BE000088012E0012001F0B9FB0C48008800F4F5
:100BF000004050B100200949088069460848FFF7C5
:100C000069FC04460CB120467CBD681E80B205001C
:100C1000E8D100BFF8E70000C0600020BC60002001
:100C20005862002010B50446012C06D0022C0DD0CD
:100C3000032C14D0042C24D11AE001211348FFF70F
:100C400009FF08B9012010BD0020FCE7042110486D
:100C5000FFF700FF08B90120F5E70020F3E70821BE
:100C60000B48FFF7F7FE08B90120ECE70020EAE7A0
:100C700010210748FFF7EEFE08B90120E3E7002046
:100C8000E1E700BF00BF0020DDE7000000000240F8
:100C9000001002401CB50121112000F05FFE1C2055
:100CA000009000208DF804008DF8070003208DF8D7
:100CB000050069460448FFF762FE1C200090694663
:100CC0000248FFF75CFE1CBD00000240001002401D
:100CD00010B50446012C06D0022C0AD0032C0ED0ED
:100CE000042C18D111E04FF400710C48FFF7BDFE41
:100CF00011E04FF480610948FFF7B7FE0BE04FF4B5
:100D000000510748FFF7B1FE05E04FF48041044869
:100D1000FFF7ABFE00BF00BF10BD00000014024093
:100D2000001002401CB50121302000F017FE4FF4E6
:100D3000C060009001208DF8040000208DF80600AE
:100D40008DF8070003208DF8050069460A48FFF773
:100D500016FE4FF4C040009069460848FFF70FFEAA
:100D60004FF4C0610448FFF780FE4FF4C0410348D0
:100D7000FFF77BFE1CBD0000001402400010024083
:100D800010B50446012C06D0022C0AD0032C0ED03C
:100D9000042C18D111E04FF400710C48FFF763FEEA
:100DA00011E04FF480610948FFF75DFE0BE04FF45E
:100DB00000510748FFF757FE05E04FF48041044813
:100DC000FFF751FE00BF00BF10BD0000001402403D
:100DD0000010024000BF0549098801F040010029C8
:100DE000F9D00249091D0880704700000044004006
:100DF00000BFFEE77047000070B5002100230F22FE
:100E0000C4781CB3174C246804F4E064C4F5E064AF
:100E1000C4F30721C1F10404E3B20A4144789C40C1
:100E2000E1B28478144021430C07210E0E4C057862
:100E30006155047804F01F050124AC4005786D115C
:100E4000AD0005F1E025C5F8004109E0047804F0A3
:100E50001F050124AC40054D0678761145F8264063
:100E600070BD00000CED00E000E400E080E100E077
:100E700070B5002418E004F1B000002100F0BFFCC0
:100E80000021084600F0BBFC0021102000F0B7FC58
:100E9000002505E00121002000F0B1FC681CC5B26E
:100EA000802DF7DB601CC4B2082CE4DB70BD10B5EC
:100EB000FFF7DEFF62220021102000F0B9FB632261
:100EC0000021202000F0B4FB64220021302000F03B
:100ED000AFFB65220021402000F0AAFB1B2200216D
:100EE000502000F0A5FB1C220021602000F0A0FB98
:100EF0001D2203210A2000F09BFB1E220321182043
:100F000000F096FB1F220321262000F091FB2022F7
:100F10000321342000F08CFB25220321422000F025
:100F200087FB26220321502000F082FB232205218B
:100F30000A2000F07DFB24220521182000F078FB18
:100F400025220521262000F073FB262205213520CD
:100F500000F06EFB1F220521342000F069FB2022E7
:100F60000521422000F064FB25220521502000F0DD
:100F70005FFB262205215E2000F05AFB10BD10B554
:100F80000446012C02D0022C1AD10CE00C233E2284
:100F90000321002000F080FB0C23202205210020EB
:100FA00000F07AFB0DE00C2320220321002000F04A
:100FB00073FB0C233E220521002000F06DFB00E0B6
:100FC00000BF00BF10BD10B5FFF752FF2B2200215C
:100FD000102000F02DFB2C220021202000F028FB07
:100FE0002D220021302000F023FB2E220021402062
:100FF00000F01EFB1B220021502000F019FB1C22D8
:101000000021602000F014FBD82202210A2000F009
:101010000FFB1D220221182000F00AFB1E220221D4
:10102000262000F005FBD92204210A2000F000FB55
:10103000DA220421182000F0FBFA1D2204212620C8
:1010400000F0F6FA1E220421352000F0F1FADB222E
:1010500006210A2000F0ECFADC220621182000F01C
:10106000E7FA23220621262000F0E2FA24220621B4
:10107000342000F0DDFA25220621422000F0D8FAC3
:1010800026220621502000F0D3FA10BD10B50446E8
:10109000012C04D0022C15D0032C39D125E00C23CF
:1010A0003E220221002000F0F7FA0C232022042126
:1010B000002000F0F1FA0C2320220621002000F08D
:1010C000EBFA26E00C2320220221002000F0E4FAB3
:1010D0000C233E220421002000F0DEFA0C23202203
:1010E0000621002000F0D8FA13E00C232022022170
:1010F000002000F0D1FA0C2320220421002000F06F
:10110000CBFA0C233E220621002000F0C5FA00E0B5
:1011100000BF00BF10BD10B5FFF7AAFE17220021C7
:10112000102000F085FA18220021202000F080FA1B
:1011300019220021302000F07BFA1A2200214020E1
:1011400000F076FA1B220021502000F071FA1C22D8
:101150000021602000F06CFA1D2202210A2000F01C
:1011600067FA1E220221182000F062FA1F220221D3
:10117000262000F05DFA20220221342000F058FAE7
:1011800035220221422000F053FA3622022150205B
:1011900000F04EFA232204210A2000F049FA24220A
:1011A0000421182000F044FA25220421262000F012
:1011B0003FFA26220421352000F03AFA1F220421AA
:1011C000342000F035FA20220421422000F030FAC9
:1011D00035220421502000F02BFA362204215E2013
:1011E00000F026FA2B2206210A2000F021FA2C22F8
:1011F0000621182000F01CFA2D220621262000F0DE
:1012000017FA2E220621342000F012FA2F2206218E
:10121000422000F00DFA30220621502000F008FA9A
:1012200010BD10B5FFF724FE23220021102000F08E
:10123000FFF924220021202000F0FAF925220021C4
:10124000302000F0F5F926220021402000F0F0F9CE
:1012500035220021502000F0EBF9362200216020D9
:1012600000F0E6F910BD10B50446012C06D0022CA2
:101270001DD0032C34D0042C64D14AE010235E220C
:101280000621242000F008FA10232022062136200F
:1012900000F002FA102320220621482000F0FCF979
:1012A0001023202206215A2000F0F6F94BE01023EB
:1012B00020220621242000F0EFF910235E220621CF
:1012C000362000F0E9F9102320220621482000F002
:1012D000E3F91023202206215A2000F0DDF932E044
:1012E000102320220621242000F0D6F910232022EA
:1012F0000621362000F0D0F910235E220621482076
:1013000000F0CAF91023202206215A2000F0C4F967
:1013100019E0102320220621242000F0BDF910231B
:1013200020220621362000F0B7F9102320220621C2
:10133000482000F0B1F910235E2206215A2000F067
:10134000ABF900E000BF00BF10BD000038B50024BD
:1013500000BF1DE01048005D58B904EBC401242211
:1013600002EB4101C8B210232D22042100F094F9B0
:101370000DE01020084900900A5D04EBC40124230D
:1013800003EB4101C8B20123042100F0D7F9641C2A
:10139000042CDFDB38BD00000828002010B504460F
:1013A000012C04D0022C15D0032C39D125E00C23BC
:1013B0003E220221002000F06FF90C23202204219C
:1013C000002000F069F90C2320220621002000F003
:1013D00063F926E00C2320220221002000F05CF9B2
:1013E0000C233E220421002000F056F90C23202279
:1013F0000621002000F050F913E00C2320220221E6
:10140000002000F049F90C2320220421002000F0E4
:1014100043F90C233E220621002000F03DF900E0B4
:1014200000BF00BF10BD10B5FFF722FD252203212C
:10143000102000F0FDF826220321202000F0F8F80B
:10144000DD220321302000F0F3F8DE2203214020CA
:1014500000F0EEF8DF220321502000F0E9F8E0224E
:101460000321602000F0E4F810BD2DE9F05F06468E
:101470000F4690461C46DDF828A04FF0000BE11700
:1014800004EB5171C910A4EBC10131B92046E11739
:1014900004EB5171C1F3C70506E02046E11704EBE8
:1014A0005171C910491CCDB23D4615E02946304660
:1014B00000F0AAF8B1460BE059460BF1010B1AF8FF
:1014C0000100012100F09BF909F1010000F0FF0982
:1014D000C145F1DB681CC5B2A542E7DBBDE8F09F62
:1014E00010B50121082000F039FA40204349086076
:1014F0000120087100208871032048710020C87104
:101500003F48FFF73CFA80203C4908600020C87142
:101510003B48FFF734FA01203A490860C82000F040
:101520001DFF0021AE2000F06AF90021084600F0FE
:1015300066F90021102000F062F90021402000F03F
:101540005EF90021B02000F05AF90021812000F05E
:1015500056F90021FF2000F052F90021A12000F0EF
:101560004EF90021A62000F04AF90021A82000F041
:1015700046F900213F2000F042F90021C82000F088
:101580003EF90021D32000F03AF90021084600F08E
:1015900036F90021D52000F032F90021802000F03A
:1015A0002EF90021D82000F02AF90021052000F0B2
:1015B00026F90021D92000F022F90021F12000F0C5
:1015C0001EF90021DA2000F01AF90021122000F0A3
:1015D00016F90021DB2000F012F90021302000F084
:1015E0000EF900218D2000F00AF90021142000F0EE
:1015F00006F90021AF2000F002F910BDB460002010
:10160000000C02409882414270B504460D4605F137
:10161000B000002100F0F3F8102141EA141000217D
:1016200000F0EDF804F00F00002100F0E8F870BDC4
:101630002DE9F04180460E461546002731464046CA
:10164000FFF7E2FF00240AE0124A02EB8511085D71
:10165000012100F0D4F8781CC7B2601CC4B2102C71
:10166000F2DB701CC1B24046FFF7CEFF00240CE055
:101670006900491C074A02EB4111085D012100F095
:10168000BEF8781CC7B2601CC4B2102CF0DBBDE8F9
:10169000F0810000742800202DE9F04707460E462F
:1016A0009046994600250024A8F12000C5B27F2F5E
:1016B00002DD0027B01CC6B2B9F1100F24D13146AB
:1016C0003846FFF7A1FF002408E004EB0511194A92
:1016D000505C012100F093F8601CC4B2082CF4DBCC
:1016E000701CC1B23846FFF78FFF002409E004EBFD
:1016F000051108310F4A505C012100F080F8601C90
:10170000C4B2082CF3DB12E031463846FFF77CFF09
:1017100000240AE005EB4501074A02EB4101085DA0
:10172000012100F06CF8601CC4B2062CF2DBBDE8AD
:10173000F08700002A300008022E00082DE9FF5F24
:10174000074691461E460E9D4FF0000A002435E0E4
:10175000301B401EC1B20A2001F054FAB9FBF0F070
:101760000A21B0FBF1F201FB1208BAF1000F14D10B
:10177000701EA04211DDB8F1000F0CD1AB4605EB95
:10178000DB71491001FB0471C8B22B46202201997C
:10179000FFF782FF10E04FF0010AAB4605EBDB716B
:1017A000491001FB0471C8B208F13001CAB22B46DE
:1017B0000199FFF771FF00BF601CC4B2B442C7DBE0
:1017C000BDE8FF9F2DE9F04104460F4615469846B7
:1017D00000260FE0AA5D434639462046FFF75CFF2E
:1017E00004F10800C4B2782C02DD0024B81CC7B292
:1017F000701CC6B2A85D0028ECD1BDE8F08170B5C0
:1018000004460D461DB1E0B200F086FD02E0E0B2F4
:1018100000F06CFD70BD2DE9F041054600F08DF93A
:1018200000F062F9012000F082F9042000F08DF947
:10183000022000F094F92846FFF7CCFAEF1D384655
:1018400000F06CF94FF4FA60FFF7A8F906460EB104
:10185000747A00E0FF242046BDE8F08170B500F006
:101860006CF900F041F9012000F061F9032000F06B
:101870006CF9012000F073F90526304600F04EF9AE
:101880004FF4FA60FFF78AF905460DB16C7A00E073
:10189000FF24204670BD2DE9F04781460D461646CF
:1018A0001F4600F04AF900F01FF9012000F03FF94F
:1018B000082000F04AF91B2000F051F94846FFF7D4
:1018C00089FA2812FFF786FAE8B2FFF783FA301296
:1018D000FFF780FAF0B2FFF77DFA09F1240000EB80
:1018E0002520E9B2084400EB2620F1B200EB010A02
:1018F000504600F013F94FF4FA60FFF74FF9044631
:1019000064B194F80980E07AA17A00EB0120388074
:10191000607B217B00EB0120788001E04FF0FF0825
:101920004046BDE8F08700001CB50121084600F0E4
:1019300015F84020009000208DF8040002208DF85A
:10194000070003208DF8050069460248FFF717F8E5
:101950001CBD0000000002407047000029B1064A8B
:1019600012680243044B1A6004E0034A126882437F
:10197000014B1A60704700003038024029B1064A16
:1019800012680243044B1A6004E0034A126882435F
:10199000014B1A60704700004038024029B1064AE6
:1019A00012680243044B1A6004E0034A126882433F
:1019B000014B1A60704700002038024029B1064AE6
:1019C00012680243044B1A6004E0034A126882431F
:1019D000014B1A60704700004438024029B1064AA2
:1019E00012680243044B1A6004E0034A12688243FF
:1019F000014B1A607047000024380240F0B5002106
:101A000000220024022500260223324F3F6807F0FF
:101A10000C0121B1042905D0082937D105E02E4F4A
:101A2000076036E02D4F076033E02A4F3F1F3F68C5
:101A3000C7F38056274F3F1F3F6807F03F036EB143
:101A4000264FB7FBF3F7DFF88CC0ACF1040CDCF8E1
:101A500000C0CCF3881C07FB0CF40CE01E4FB7FB56
:101A6000F3F7DFF870C0ACF1040CDCF800C0CCF385
:101A7000881C07FB0CF4174F3F1F3F68C7F3014753
:101A80007F1C7D00B4FBF5F7076002E0124F076092
:101A900000BF00BF0F4F3F6807F0F0010909104F6A
:101AA0007A5C0768D74047600A4F3F6807F4E05107
:101AB000890A0B4F7A5C4768D7408760054F3F68BB
:101AC00007F46041490B064F7A5C4768D740C7600E
:101AD000F0BD0000083802400024F40000127A0033
:101AE0003C2800207047000010B50B490968080E1B
:101AF000FFF770F908480068C0F30740FFF76AF97C
:101B000005480088C0F30720FFF764F90249087808
:101B1000FFF760F910BD0000C060002010B504465A
:101B20002012FFF757F9E0B2FFF754F910BD10B5D6
:101B300004462046FFF74EF910BD10B5EF20FFF721
:101B400049F90120FFF746F910BD10B50446C4F36A
:101B50000720FFF73FF9E0B2FFF73CF910BD10B5E1
:101B600004462046FFF736F910BD00000CB50020F2
:101B7000019000903448006840F480303249086099
:101B800000BF3148006800F4003000900198401C0C
:101B90000190009818B90198B0F5A04FF1D12A48EA
:101BA000006800F4003010B10120009001E0002036
:101BB00000900098012846D123484030006840F04A
:101BC00080502149403108602048006840F440407E
:101BD0001E4908601C48083000681B49083108602D
:101BE0000846006840F4004008600846006840F479
:101BF000A05008601648091F0860081F006840F0E0
:101C00008070091F086000BF0F48006800F0007076
:101C10000028F9D040F205700E4908600A480830E3
:101C2000006820F003000849083108600846006891
:101C300040F00200086000BF03480830006800F070
:101C40000C000828F8D10CBD00380240007000409C
:101C500008544007003C02407047000010B515488A
:101C6000006840F47000134908601348006840F0B1
:101C700001001149086000200F49083108600E4832
:101C800000680E4908400C4908600D48091D0860AD
:101C9000081F006820F48020091F08600020064902
:101CA0000C310860FFF762FF4FF000600149803996
:101CB000086010BD88ED00E000380240FFFFF6FE2E
:101CC0001030002410B50121094800F04CF868B12B
:101CD0000848008840F40040064908800121044873
:101CE00000F032F80021024800F031F810BD000089
:101CF00000140040BC6000207FB505460C46012161
:101D00002020FFF73BFE0195ADF800400020ADF824
:101D10000800ADF8020069460A4800F041F80122C7
:101D20001146084800F030F837208DF80C000120EB
:101D30008DF80D008DF80E008DF80F0003A8FFF749
:101D40005BF87FBD00140040CA430282704721B196
:101D5000028842F00102028004E002884FF6FE731E
:101D60001A400280704730B502460020002300244C
:101D7000158A05EA0103958905EA010413B10CB13E
:101D8000012000E0002030BD1AB183890B4383811C
:101D900002E083898B438381704741627047000072
:101DA00000220288184B98420ED0184B98420BD054
:101DB000B0F1804F08D0164B984205D0154B984291
:101DC00002D0154B984204D14FF68F731A404B88BE
:101DD0001A43124B984207D0114B984204D04FF649
:101DE000FF431A400B891A4302804B68C3620B8879
:101DF0000385054B984202D0044B984201D18B7A5F
:101E000003860123838270470000014000040140E3
:101E10000004004000080040000C0040001000409A
:101E20000014004010B5002440F22551114800F084
:101E300062F901281CD10F4800F016FA0446312C33
:101E400002D101200C490860322C02D102200A493B
:101E50000860332C02D10320074908600648016856
:101E600006A0FEF72BFA40F22551024800F0A2F836
:101E700010BD0000001001406C28002075736172D5
:101E800074315F70735F666C6167203D3D2025642F
:101E90000D0A000010B588B0044601211020FFF79C
:101EA0008DFD01210846FFF759FD0722092123482E
:101EB000FEF7ADFD07220A212048FEF7A8FD02200B
:101EC0008DF81C0000208DF81E0003208DF81D00E9
:101ED00001208DF81F004FF4C060069006A9174836
:101EE000FEF74DFD02940020ADF814000C20ADF873
:101EF00012000020ADF81000ADF80E00ADF80C0097
:101F000002A90F4800F046F901210D4800F061F8E0
:101F1000012240F225510A4800F017F925208DF8DA
:101F2000040001208DF807008DF805008DF80600EB
:101F300001A8FEF761FF08B010BD000000000240DC
:101F40000010014010B540F22551164800F0D3F8BA
:101F500000B3144800F088F9C4B21348008800F4B4
:101F60000040B8B910480088B0F5C87F13DA0021E6
:101F70000E48FFF712FF0C48008818B901210B48E2
:101F8000FFF7E5FE084801880088401C064A1080DB
:101F90000748445405E00448008840F400400249E2
:101FA000088010BD00440040BC60002000140040C8
:101FB0005862002010B50022002340F66A14A142A6
:101FC00000D100BF0A1201249440A3B2DC43048074
:101FD00010BD21B1828942F40052828104E08289DD
:101FE0004DF6FF731A4082817047000010B5044619
:101FF0003248844208D101211020FFF7EFFC002174
:102000001020FFF7EBFC57E02D48844209D1012155
:102010004804FFF7C3FC00214FF40030FFF7BEFC7B
:102020004AE02848844209D101218804FFF7B6FC20
:1020300000214FF48020FFF7B1FC3DE022488442AC
:1020400009D10121C804FFF7A9FC00214FF40020A9
:10205000FFF7A4FC30E01D48844209D101210805A6
:10206000FFF79CFC00214FF48010FFF797FC23E062
:102070001748844208D101212020FFF7AFFC00213E
:102080002020FFF7ABFC17E01248844209D1012160
:102090008807FFF783FC00214FF08040FFF77EFCAC
:1020A0000AE00D48844207D101214005FFF776FC84
:1020B00000216005FFF772FC10BD00000010014018
:1020C0000044004000480040004C004000500040E8
:1020D0000014014000780040007C004002460020CF
:1020E000B1F5007F00D100BF13880B400BB1012078
:1020F00000E00020704770B5024600240023002550
:10210000002040F66A16B14200D100BFC1F342156B
:1021100001F01F03012606FA03F3012D02D196896F
:10212000334006E0022D02D1168A334001E0968A40
:1021300033400C12012606FA04F41688344013B119
:102140000CB1012000E0002070BDF0B50346002472
:1021500000260025002040F66A17B94200D100BFD2
:102160001846C1F3421401F01F06012707FA06F5CD
:10217000012C01D10C3004E0022C01D1103000E020
:1021800014301AB107682F43076002E00768AF43B5
:102190000760F0BD2DE9FF4705460E460024A14625
:1021A00000BFA046B08900B100BF2C8A24F440547F
:1021B000F08804432C82AC8941F20C608443B088DF
:1021C00031890843718908430443AC81AC8A24F403
:1021D0004074B0890443AC826846FFF70FFC204886
:1021E000854202D01F48854202D1DDF80C9001E003
:1021F000DDF80890A88900F4004040B109EBC9005F
:1022000000EB091031684900B0FBF1F707E009EB7A
:10221000C90000EB091031688900B0FBF1F76420B8
:10222000B7FBF0F004012009642101FB1078A889B4
:1022300000F4004040B1322000EBC800B0FBF1F0E8
:1022400000F00700044308E0322000EB081064218E
:10225000B0FBF1F000F00F0004432C81BDE8FF87D4
:10226000001001400014014001468888C0F30800B6
:102270007047C1F308028280704700BFFEE700008C
:1022800070B505460024012000F0C4F8002015496F
:1022900008601549C1F89802052000F085F8072468
:1022A0001CE00120A040284018B101200D49086021
:1022B00002E000200B490860052000F075F80120BD
:1022C0000849091F0860052000F06EF80020064943
:1022D000C1F89802052000F067F8641E002CE0DACF
:1022E00070BD00009C8241420080414210B504460E
:1022F000FEF7F6FB7820FFF7C3FFFEF731FC002066
:10230000FFF7BEFFFEF72CFC2046FFF7B9FFFEF7F4
:1023100027FCFEF705FC10BD10B50446FEF7E0FBF8
:102320007820FFF7ADFFFEF71BFC4020FFF7A8FF6A
:10233000FEF716FC2046FFF7A3FFFEF711FCFEF7A1
:10234000EFFB10BD30380A2801D201207047002071
:102350007047014600BF0020704700001DE00021CB
:102360004FF0E02211610F490968C9084FF47A72F1
:10237000B1FBF2F14FF0E0225161002191610121A6
:10238000116100BF4FF0E021096901F4803100299B
:10239000F8D000214FF0E02211610100A0F101000E
:1023A000DDD170472828002000214FF0E022116184
:1023B0000D490968C9080D4AB1FBF2F141434FF0DC
:1023C000E0225161002191610121116100BF4FF0B4
:1023D000E021096901F480310029F8D000214FF093
:1023E000E0221161704700002828002040420F00C1
:1023F00070B504460D46A1B20548FFF73AFF00BF8D
:1024000080210348FFF76AFE0028F9D0204670BDFE
:102410000010014010B5044680200A4908600020E1
:10242000C871012C06D10846047100208871032070
:10243000487102E000200349087102490248FEF792
:102440009EFA10BDB46000200004024008B50124CB
:10245000FEF768FCFEF71EFCFEF714F94FF4165069
:10246000FFF718FDFEF704FBFEF7DAF9FFF738F87F
:102470004FF4614000F056FCFFF756FA6420FE4925
:102480000880FEF7F5FCABE3FEF7EAF94FF4FA60DB
:10249000FFF764FFFEF73FFEA1E32046FEF77EFF55
:1024A0000220FEF7BFFB01280BD1032C09DA641CC4
:1024B0002046FEF773FF00BF0220FEF7B3FB0128A2
:1024C000FAD00120FEF7AEFB01280BD1012C09DD6B
:1024D000641E2046FEF762FF00BF0120FEF7A2FB4C
:1024E0000128FAD00420FEF79DFB0128D4D100BFBB
:1024F0000420FEF797FB0128FAD0012C7AD1DF489F
:102500000068052809D1FEF78EFF4FF49670FFF79B
:1025100025FF00BFFEF7FFFD17E1FEF7A9FCD84835
:1025200008238022002100900846FEF79EFF5FE00E
:102530000320FEF777FB012808D1FEF7ECFD00BF72
:102540000320FEF76FFB0128FAD052E000F066FB93
:10255000CC49086008460068012819D1FEF788FCBC
:10256000C94808238022002100900846FEF77DFF1D
:10257000C820FFF7F3FE012400F0C8FBFEF778FC4B
:10258000FEF7C9FD0020BF490860BC49086030E083
:10259000BC48006860BBFEF76BFCBC480823802287
:1025A000002100900846FEF760FFC820FFF7D6FE26
:1025B0000320B4490860B1480068401CAF49086076
:1025C000FEF756FCAD480068052809D1FEF72BFF41
:1025D0004FF49670FFF7C2FEFEF79DFD09E009E09B
:1025E000A74808238022002100900846FEF73DFFFF
:1025F0009EE7AAE0022C8FD1A0480068052809D1E7
:10260000FEF711FF4FF49670FFF7A8FE0124FEF7C6
:1026100082FD9AE0012400F079FBFEF702FEFEF74E
:1026200095FE90E00320FEF7FDFA012808D1FEF7A1
:1026300072FD00BF0320FEF7F5FA0128FAD083E00F
:102640002046FEF710FE0120FEF7ECFA01280DD11E
:10265000042C01D0641C00E001242046FEF703FE98
:1026600000BF0120FEF7DEFA0128FAD00220FEF7B3
:10267000D9FA012818D1601E8549085C092807D0BD
:10268000601E085C401CC1B2601E814A115403E008
:102690000021601E7E4A1154FEF758FE00BF022042
:1026A000FEF7C0FA0128FAD00420FEF7BBFA012891
:1026B00049D100F003FB774908600846006801280B
:1026C00015D1FEF7D5FB7448082380220021009025
:1026D0000846FEF7CAFEC820FFF740FE012400F0BE
:1026E00015FB002065490860FEF715FD2CE0FEF79C
:1026F000BFFB664808238022002100900846FEF7B1
:10270000B4FEC820FFF72AFE5C480068401C5B4905
:102710000860012400F0FAFA58480068052808D13A
:10272000FEF781FE4FF49670FFF718FEFEF7F3FCFC
:102730000AE0FEF776FDFEF709FE00BF0420FEF773
:1027400071FA0128FAD06DE700BF032C78D100BFE1
:102750000320FEF767FA0128FAD00124FEF7A7FB51
:102760002046FEF70CFC38E24C480068012868D18E
:102770000320FEF757FA012808D1FEF7CCFC00BF72
:102780000320FEF74FFA0128FAD027E20220FEF7D5
:1027900049FA01280BD1032C09DA641C2046FEF704
:1027A000FDFD00BF0220FEF73DFA0128FAD001200E
:1027B000FEF738FA01280BD1012C09DD641E2046F2
:1027C000FEF7ECFD00BF0120FEF72CFA0128FAD03D
:1027D0000420FEF727FA0128C5D100BF0420FEF728
:1027E00021FA0128FAD0012CBDD0022CBBD0032C39
:1027F000B9D10124FEF715FDFEF7A8FD2046FEF72E
:1028000032FDB7E00320FEF70DFA01280CD1FEF7E8
:102810004EFB01242046FEF7B2FB00BF0320FEF76B
:1028200001FA0128FAD0A6E02046FEF71CFD01209F
:10283000FEF7F8F901280FD1042C03D0641C02E044
:10284000CDE199E001242046FEF70DFD00BF0120F7
:10285000FEF7E8F90128FAD00220FEF7E3F9012893
:102860002DD1601E0A49085C09281CD0601E085C36
:10287000401CC1B2601E13E0E86300201428002051
:10288000002000201028002000100020000C002054
:10289000082800200C28002000080020182800200C
:1028A000D04A115403E00021601ECE4A1154FEF7B5
:1028B0004DFD00BF0220FEF7B5F90128FAD0042033
:1028C000FEF7B0F9012855D100BF0420FEF7AAF9A0
:1028D0000128FAD0FEF7CCFA2B2202211020FEF7B5
:1028E000A7FE2C2202212020FEF7A2FE2522022193
:1028F0003020FEF79DFE262202214020FEF798FEA2
:102900001B2202215020FEF793FE10200090B548B4
:102910004278012305211020FEF710FF10200090BF
:10292000B0488278012305212020FEF707FF102000
:102930000090AC48C278012305213020FEF7FEFE4E
:1029400010200090A7480279012305214020FEF7BE
:10295000F5FE00F0A3F90020A3490860C820FFF7A6
:10296000FDFC00F0D3F90124FEF72DFB2046FEF715
:102970008DFB00E046E730E10320FEF753F9012824
:1029800008D1FEF7C8FB00BF0320FEF74BF9012872
:10299000FAD023E10220FEF745F901280BD1012CE2
:1029A00000D102242046FEF7EAFA00BF0220FEF71B
:1029B00039F90128FAD00120FEF734F901280BD1AA
:1029C000022C00D101242046FEF7D9FA00BF0120D5
:1029D000FEF728F90128FAD00420FEF723F9012890
:1029E000C9D100BF0420FEF71DF90128FAD0022C3E
:1029F00077D1012400F08AF9FEF713FCFEF7A6FC5C
:102A000084E00320FEF70EF901280ED1FEF730FA1C
:102A10000124FEF74CFA2046FEF7B1FA00BF03206E
:102A2000FEF700F90128FAD071E02046FEF71BFC02
:102A30000120FEF7F7F801280DD1042C01D0641C09
:102A400000E001242046FEF70EFC00BF0120FEF747
:102A5000E9F80128FAD00220FEF7E4F8012818D19D
:102A6000601E6049085C092807D0601E085C401C95
:102A7000C1B2601E5B4A115403E00021601E594A36
:102A80001154FEF763FC00BF0220FEF7CBF80128CB
:102A9000FAD00420FEF7C6F8012837D100F022F959
:102AA000524908600846006801281BD1FEF7E0F98A
:102AB0004F4808238022002100900846FEF7D5FCED
:102AC000C820FFF74BFC012400F020F90120494900
:102AD0000860FEF7CDF9FEF776FA2046FEF7D6FA43
:102AE00015E015E0FEF7C4F94348082380220021D1
:102AF00000900846FEF7B9FCC820FFF72FFC012420
:102B000000F004F9FEF78DFBFEF720FC79E764E0A6
:102B1000012C62D100BFFEF7ABF9384808238022B0
:102B2000002100900846FEF7A0FC54E00320FEF7C9
:102B300079F801280CD10124FEF7B9F92046FEF7F7
:102B40001EFA00BF0320FEF76DF80128FAD043E01B
:102B500000F064F82A4908600846006801281DD181
:102B6000FEF786F9224808238022002100900846BB
:102B7000FEF77BFCC820FFF7F1FB012400F0C6F84C
:102B800000201F49086001201A490860FEF770F90B
:102B9000FEF719FA2046FEF779FA1DE0184800689A
:102BA000C8B9FEF765F91448082380220021009077
:102BB0000846FEF75AFCC820FFF7D0FB0320104957
:102BC0000860FEF755F90D48082380220021009087
:102BD0000846FEF74AFCA9E700BFC5E500BF5CE474
:102BE00052E4000008280020142800200C280020AF
:102BF0000024002018280020000C002000200020C5
:102C00001028002010B50246012000E050430B00C0
:102C1000A1F10104E1B2F9D110BD000038B512A054
:102C2000FDF74CFBFEF71AFE0446DCB90420FEF764
:102C3000A7F80120FEF7EFFD04468CB9FDF718FD5B
:102C40000420FEF745F8144802886B460021012055
:102C5000FEF721FE04460CB9012038BD0020FCE738
:102C60000320FAE70320F8E73D3D3D3D3D3D3D3D76
:102C70003D3D3D3D3D3D3D3D3D3D32A1A2CBA2D63A
:102C8000B8CEC63D3D3D3D3D3D3D3D3D3D3D3D3DDF
:102C90003D3D0D0A00000000E8630020002000BF59
:102CA00004E00449095C044A1154401C0428F8DB80
:102CB000704700000828002000280020002100BFE5
:102CC00008E00648405C064A525C904201D0002071
:102CD0007047491C0429F4DB0120F9E7082800208B
:102CE00000280020002100BF08E00648405C064A9A
:102CF000525C904201D000207047491C0429F4DB4B
:102D00000120F9E70828002004280020002000BF47
:102D100003E00021024A1154401C0428F9DB7047EB
:102D20000828002010B588B0044601210846FEF7A7
:102D300015FE01214804FEF721FE2B48FFF756F946
:102D4000072202212948FDF762FE072203212748B6
:102D5000FDF75DFE0C20059002208DF818008DF81F
:102D6000190000208DF81A0001208DF81B0005A91C
:102D70001E48FDF704FE01940020ADF80800ADF8F0
:102D80000A00ADF80C00ADF810000C20ADF80E00F4
:102D900001A91548FFF7FEF901211348FFF719F9BA
:102DA000012240F225511048FFF7CFF926208DF877
:102DB0001C0001208DF81D0000208DF81E00012050
:102DC0008DF81F0007A8FEF717F842F2CF0140F276
:102DD000E730FEF791FF00200549088000210548F3
:102DE000FEF7B5FF08B010BD0044004000000240EF
:102DF000BC600020001400404FF04070E1EE100A6B
:102E000070470000000000000000002F00000000DC
:102E10000700070000147F147F1400242A7F2A1261
:102E20000062640813230036495522500000050350
:102E3000000000001C224100000041221C00001480
:102E4000083E08140008083E0808000000A06000C2
:102E50000008080808080000606000000020100852
:102E60000402003E5149453E0000427F40000042BE
:102E700061514946002141454B31001814127F1021
:102E8000002745454539003C4A4949300001710950
:102E9000050300364949493600064949291E000004
:102EA00036360000000056360000000814224100AB
:102EB00000141414141400004122140800020151DB
:102EC000090600324959513E007C1211127C007FE4
:102ED00049494936003E41414122007F4141221C7F
:102EE000007F49494941007F09090901003E4149E4
:102EF000497A007F0808087F0000417F41000020D8
:102F000040413F01007F08142241007F4040404083
:102F1000007F020C027F007F0408107F003E4141C9
:102F2000413E007F09090906003E4151215E007FB4
:102F3000091929460046494949310001017F01012B
:102F4000003F4040403F001F2040201F003F4038CE
:102F5000403F00631408146300070870080700610D
:102F60005149454300007F41410000552A552A55EB
:102F7000000041417F000004020102040040404083
:102F80004040000001020400002054545478007FA7
:102F90004844443800384444442000384444487F7E
:102FA00000385454541800087E0901020018A4A4E3
:102FB000A47C007F080404780000447D40000040A9
:102FC00080847D00007F102844000000417F400085
:102FD000007C04180478007C080404780038444419
:102FE000443800FC242424180018242418FC007CF5
:102FF0000804040800485454542000043F4440206E
:10300000003C4040207C001C2040201C003C403004
:10301000403C004428102844001CA0A0A07C004490
:1030200064544C44141414141414000000000000E0
:1030300000000000000000000000000000F8000098
:103040000000000000333000000000100C06100CDF
:103050000600000000000000000040C07840C0787A
:103060004000043F04043F040400007088FC083062
:103070000000001820FF211E0000F008F000E018FA
:10308000000000211C031E211E0000F008887000B3
:1030900000001E2123241927211010160E00000005
:1030A00000000000000000000000000000E0180424
:1030B0000200000000071820400000020418E00091
:1030C00000000040201807000000404080F08040D1
:1030D00040000202010F01020200000000F00000A7
:1030E00000000101011F01010100000000000000BB
:1030F000000080B070000000000000000000000030
:1031000000000001010101010101000000000000B8
:10311000000000303000000000000000000080606F
:103120001804006018060100000000E010080810F4
:10313000E000000F102020100F00001010F8000019
:1031400000000020203F20200000007008080888B0
:103150007000003028242221300000300888884880
:1031600030000018202020110E000000C02010F8B0
:10317000000000070424243F240000F80888880881
:1031800008000019212020110E0000E01088881886
:103190000000000F112020110E0000380808C83868
:1031A00008000000003F0000000000708808088848
:1031B0007000001C222121221C0000E010080810D1
:1031C000E0000000312222110F00000000C0C0000A
:1031D000000000000030300000000000008000000F
:1031E000000000008060000000000000804020100F
:1031F0000800000102040810200040404040404008
:10320000400004040404040404000008102040806A
:10321000000000201008040201000070480808089F
:10322000F0000000003036010000C030C828E8106F
:10323000E0000718272423140B000000C038E0002A
:103240000000203C23020227382008F88888887074
:103250000000203F202020110E00C0300808080880
:103260003800071820202010080008F80808081067
:10327000E000203F202020100F0008F88888E80890
:103280001000203F20202320180008F88888E80834
:103290001000203F200003000000C030080808385C
:1032A000000007182020221E020008F8080000086D
:1032B000F808203F210101213F20000808F80808F4
:1032C00000000020203F2020000000000808F8082F
:1032D0000800C08080807F00000008F888C028189F
:1032E0000800203F20012638200008F808000000D0
:1032F0000000203F20202020300008F8F800F8F8D7
:103300000800203F003F003F200008F830C00008C0
:10331000F808203F200007183F00E01008080810B8
:10332000E0000F10202020100F0008F808080808FF
:10333000F000203F210101010000E0100808081002
:10334000E0000F18242438504F0008F88888888837
:103350007000203F2000030C30200070880808080F
:1033600038000038202121221C00180808F808081D
:1033700018000000203F2000000008F808000008A6
:10338000F808001F202020201F000878880000C8AF
:103390003808000007380E010000F80800F800089F
:1033A000F800033C0700073C0300081868808068A9
:1033B000180820302C03032C30200838C800C838E7
:1033C00008000000203F2000000010080808C8384E
:1033D00008002038262120201800000000FE0202EC
:1033E00002000000007F40404000000C30C00000A0
:1033F0000000000000010638C00000020202FE00CA
:103400000000004040407F00000000000402020273
:1034100004000000000000000000000000000000A8
:103420000000808080808080808000020204000094
:10343000000000000000000000000000808080808C
:1034400000000019242222223F2008F8008080007A
:103450000000003F112020110E000000008080803D
:103460000000000E11202020110000000080808844
:10347000F800000E112020103F2000008080808086
:103480000000001F222222221300008080F0888882
:1034900088180020203F20200000000080808080CD
:1034A0008000006B94949493600008F80080808002
:1034B0000000203F210000203F200080989800005D
:1034C00000000020203F202000000000008098988D
:1034D000000000C08080807F000008F8000080802D
:1034E0008000203F24022D302000000808F8000052
:1034F00000000020203F202000008080808080800D
:103500008000203F20003F20003F8080008080809E
:103510000000203F210000203F20000080808080AC
:103520000000001F202020201F00808000808000DD
:10353000000080FFA12020110E000000008080808C
:103540008000000E112020A0FF80808080008080FD
:10355000800020203F21200001000000808080802A
:1035600080000033242424241900008080E080801F
:1035700000000000001F202000008080000000806C
:103580008000001F202020103F20808080000080CD
:10359000808000010E3008060100808000800080DD
:1035A00080800F300C030C300F0000808000808082
:1035B00080000020312E0E312000808080000080AD
:1035C000808080818E70180601000080808080805D
:1035D00080000021302C2221300000000000807C7F
:1035E000020200000000003F404000000000FF0019
:1035F000000000000000FF0000000002027C8000CC
:1036000000000040403F00000000000601010202EF
:103610000404000000000000000004000008000096
:103620000000000000020001000010004C360008FD
:1036300000000020C4600000C401000878530008A6
:10364000C46000209409000028020008300E000623
:103650000AFE0AC600E000F000F800014006FE7D08
:10366000BBC7EF0100063BC7BB7DFE0001100D0884
:103670000CFEFE0C082060FEFE60205C800778488F
:10368000FE82BABA0301135EA20101027B0001604F
:1036900004FEFF0301C3FFFF0F31BBE004C0C0C045
:1036A000270211FE270137802175910B6004FFFF6F
:1036B0000C01411A000422E1E1E127053700600412
:1036C0000F1F1801F31F0F0F012E27053484240F3D
:1036D0008C4222120C00FC020202FC000004772043
:1036E00008205844FE400010015112411E4112A111
:1036F0002A01215F100A24A42E24E4242EA42447A6
:10370000F80AF84A4C48F8484C4AF88F31076200EA
:10371000062108911F9118011412594E23C020A2AE
:10372000A320C00A140B00120A07027F02070A1224
:103730004810060B0A0A0A7F040A540BCE900A1F8F
:103740002040404050205F800A0511711C0D28AEBA
:10375000E67C7CE4A47C7C447C7CC203140CECEE10
:10376000AAECEC9EBE2C263230233005F2F6040281
:10377000011AFEE9200824B4FEFEB4A4A406253FE5
:103780001C0B0424B4BCEC6662329282EB030C0D79
:103790002C30B8EE7610C8E8BA9EACE8C8340420E5
:1037A0000601011F1F1501331F1FB6300B1F121F0B
:1037B0001F0F1F16131D1C0E31CB2310101D100DD3
:1037C00002121A0A121E1E020A1A120214001BA268
:1037D000190D05111F1F01050D1B13000009090D0F
:1037E0000515180F070F1F1919000126FE561005A1
:1037F00042C2423204B10BDD25057680B5C7808018
:10380000C0700C38FC3C3E1E1E1E9F9F9F1F011067
:10381000049F9F9E130C081C1EFEFEFEF8F8806C91
:10382000043DB1053C070603020346A04A037006A7
:10383000A6430203061931A43FF00E0B033C070216
:1038400004383804031003930EF08C3D94045006A2
:1038500007080808479B3C07808748080807BE04FC
:103860003101000417FCF8E085200987C4C4E4E4B2
:10387000E4FC040110080505FD050504040F4006DD
:10388000E4C48487804EDC0780C0E0E3FCE053039F
:103890003F3C035B03129E5D1D7904117B300408DD
:1038A00008F80613080901710F1B0F030940043FB4
:1038B0007F7F84B6C0791805F8FCFC3E62B4080727
:1038C0000707030101FF0E4E01000662070111F414
:1038D0001006030C102040EC6C07804020100C03F5
:1038E000E8063006070F0F0F0E01B0050F0FFF029D
:1038F00001240CFF3C3C7C78F8F0F0E0E0C0240CA4
:1039000008170103071F1F2F06720541BD43081F3B
:10391000070D163F050D1A1907B37F40015E7F564C
:10392000033D94060D1E6D05FE401204257D69734E
:103930004538B28025B10DA28001BDFB040D1FE703
:1039400005140F84A3914179C1A5A9918985E1113D
:1039500025D6140F8161F91711F100003C202020B9
:103960003F20F86810625A47F24204F29594F4043A
:10397000E502F404029404380738D0298F12FF328C
:103980002E206F0851440C0A1C0804FA4949F94DCD
:103990004BF81F052E1E94052A1FFA5E3E30052C9B
:1039A0000504040F0096031C04122210D7062C0EE7
:1039B0000206023F01003F04243F0017209B0448F9
:1039C00005201008047F29151DE008514031443DB1
:1039D0009D0641440C0A9D20180702020F12221F67
:1039E000820424170048C8C8880888F8FC3C08F0FE
:1039F000FF7FAFA2A020A0F0F060D61C0E87DEDE15
:103A00008800FCFCFC060703FBFA53032C04FCFCB7
:103A100008F7081EFEB4041008E2C2C2424242C2C5
:103A2000061D13063D9E071005707C7C480110059D
:103A3000C9CBCF4E070C07266848383C1C08050543
:103A40006C10C1F77F3FFFF1E40703C0FCFF3FFFAD
:103A5000E06E072E807E091C063F7F3F1808F9089C
:103A60004C0620207F7F3F13091D9409110C1DACCB
:103A70000450047F7F7F100C142600909888CC6C33
:103A80006637BBDFEFFEFCFCDC7EE7C382AD0A12CB
:103A900004DF2D5B062C04190D0EEA033C0A00011D
:103AA000070F1E1C08080219043C040307065209EC
:103AB0003F0F0F5D091A04801D6605A204013E1F19
:103AC00015091C0C08080C040606030F09181C55E0
:103AD000042D78030005A107060200012EC02E0464
:103AE0004F506036041DA50821063C044040004D9F
:103AF000033D77051C048080F0E6052DF9049E2027
:103B0000F6034DC7087D220633404027312B290E8E
:103B10002DE40882E0440D1889092C0F2128A410F7
:103B20001E3029EA242221388409E7091C0E18FED8
:103B30000504FC00808F8888888F089E0C5C0F9895
:103B40009691FC5001FC2525FD01F900FD82095CE0
:103B500007C0300E010E300204240E1413FE12169C
:103B600004F49794949497F4A31204411C044048DD
:103B700049FF0311040F1C4840AD0C2607C5310551
:103B80005DDD0A1607F7491A4DE9032F0100DE0A29
:103B90003C0601090F0005D6066C04080402080A59
:103BA0003804030408E5120712A30F044433020982
:103BB000271D35070004A508080001100B4042CC62
:103BC0000000445454547F0416443710050202F296
:103BD000920122FE052BF202CF1C0E020C806080A7
:103BE00040300FC808082818A70B6C1088681FC839
:103BF0000810C85452D1129408D010CC090C0433C8
:103C0000E21CE0F60B1C067F201000FF040A3F5563
:103C100095C00654040404FF9D240444847FD918ED
:103C20000502027E018A3C0618060106189007204C
:103C30000E091909FF0500FF1292FF005F80347D15
:103C4000A1070008FF030C3040808000010D2324F1
:103C50000C1C0C1010FE90009EA8A8A4A4B2C40BCB
:103C60001C0AA8661008788A0C8878EF05100720CF
:103C7000E20400FC84011D5D0D1C090080BEA2E26F
:103C8000A2A2BE34102D7F0D100AF84848C808FEC5
:103C9000080ACC273D71091F10FE400A0E32F03190
:103CA000101F0111D80B1E1F040D120A082C0B093E
:103CB0000905051008050205084C071F0F047007C9
:103CC0002D8C031DF60D1C06100806111095071308
:103CD00003102F1108330417272E1EF2031C0603AE
:103CE000120A06011F0E0D387B0E09192E093049E4
:103CF000022280331F0464E90A1C0E0484F4FE7E51
:103D00000E04E0FF7FFFE3A07D073405E0F0706064
:103D1000142C050F9F9E0C6E073E0688102D230B5A
:103D20005C04FEFEFC16102D83072EE2830713426F
:103D300042081D6F0A5D34104F607887072C06C853
:103D4000C8CBCF4F880711010E1A7C8A071FC1F715
:103D500072071C07F3E08C0F0781FE075C05FFFC70
:103D6000C0037D072D160B1C04FF01003C0B1C0536
:103D700060303018C60B7C082060E0FFFF3F0083F6
:103D80000721132D2506610D3DF8050C1417303061
:103D900010189CCCCEE7733B9FFEFCF8D8FCFE8746
:103DA00007F50A2C050010180C5C0B1C0A40406338
:103DB0003737181E0F077D071016030F1F3C78308A
:103DC0002000081C1C1E0607070E0C1818383001AE
:103DD000200437373707115F29141DF8072DEA0B28
:103DE0008208015D1C081C0F406262233139191CD6
:103DF0002C2667E3E1FF30081D010C0C05A71E1CF3
:103E00001C1883050D6F800E2D3A0B1DB9071D3D43
:103E10000C5E2059072DCF0B7F90E0FF0B3DCB07A9
:103E20006EC01E089DD60742803D0D23FD070D156F
:103E300005081C09414121FF110900F3B9071C04C1
:103E40009494F4320E1C0622732A2621B3104C04DB
:103E5000608060F20F19F51D0C082C08003F9010CF
:103E6000109010FF093C09101312FE121212F37782
:103E70000E0E26FFFD070E163F81033DA70E8DBADD
:103E8000071DED0BEE01B9075F0301F1072C0401DB
:103E9000020CFD076E031808413D0D23FD0703FFCB
:103EA0000300010D3493051F849864081005A8A829
:103EB000A8FE041E88F0071D1E1012240122FC0516
:103EC0002EE412081C04000418A10E180480601EC1
:103ED000222E50AB12480F10D03E90102090A8A474
:103EE000A2242810A0D51D34120C0434C438C08C70
:103EF000151D18033C07FE2A2A2AAA2AFB152C04A2
:103F00000808FF62102C070F09098909FFFC09192D
:103F1000A03C0703008140300C70081D8D0A4C0D39
:103F2000133212FF0A00FF2424FF00BF1B114DB102
:103F3000081E00B3080E34609008720105910881D4
:103F400009F10A2DB8143DAC14B139CDC2141E606C
:103F50009B0B100560B020A0061DB7055C0620E095
:103F60002010D0BD074C0A40C070408040A090A0F7
:103F7000EE0B8E10EA0B1F8070190C1E40EF031E13
:103F8000F01C0A1E10FA0E4C05F09090900404529A
:103F900020013D320C3005F0505050044D290C6D7D
:103FA0006704CDFB061C0AE3888B84F6858486E1D2
:103FB0006D121C05047F227ED90314051292837EA4
:103FC00041154016FE6E44043C80FE3C5C04070034
:103FD00007ED091007FF492801FD55011EFD1E0EC2
:103FE0002C0B7F288A4A2A1E2A4A8A881206428473
:103FF000012287813C0A9155179DF5151359915758
:10400000141C047F20128F110F1F02028E0D02124A
:10401000800F9E8011112DF304AE80F1108128FED7
:10402000800E11D10B91466D250B4221013D51139C
:104030008C0A8240100CC33AC2020A23121C0C08DC
:10404000F90011F5555F5555F51119051C0B14E8CC
:10405000A6A9A8A9A6E914229D151C0A284A8A4ADD
:10406000FA4A8A4F28A1092C190E05F557555655BD
:104070005577050D000011FF1100BFA4A4FFA4A4F3
:10408000BFA1091D5A161EEA58163DE3195C0A41E4
:10409000496D6BD958484460350D9DC40E2DE30C15
:1040A0006DE3049E04190D2E020B0D4C040105074F
:1040B0008805300605060406052E1E02EE0C1E04B9
:1040C000AE054601543307050121276C04020301A4
:1040D0004E0D2D94092129120126210D71346DC335
:1040E000112D670A1C0700C8A89A8CA82A161C065E
:1040F00008E82828E84D0A1F8A6C740A4C0C42C450
:10410000000868584EE84848089B0A1C0848586A46
:10411000CC685848DF173C09E40EF4044434246E9C
:10412000B9172C096454444444C4FC44AB0C1C0C23
:1041300010E8A6F4ACE012CE82D29ECC160C0B187E
:10414000E62400E42820BE2028E4E6184D670A1C77
:104150000507000F102A161D4E086F05154D0A1C85
:1041600004100F10630613121F054D9B0A1407114C
:104170001517090917871006101E12121E021F12AA
:104180001E8E0A130808E25F11109B161E0FEC1119
:10419000121FFE261F4F1C051F0910132A060C04B0
:1041A000990408135D052D92182DA90A6E40E51398
:1041B0006DDF0F1DE91489C46EC0FA076104513820
:1041C000312E6EC01608BE00001431176D31084D37
:1041D0004704FD0B141C182222FF1200F3555554FE
:1041E00054F600002635ACA2010FB141B10F040A0C
:1041F0001F04FCAB182DF1072D6E132C0A1017D4D9
:104200003C1414F7007FF007180626FD25A104EFE3
:1042100020045557F5272C09A0282BAA7AAA2B2869
:10422000641C5EFC7E132E1F34163C0A47555D75D8
:10423000D7554D6547440E1FFC808F161DAD05DD1B
:10424000050B1007424340404341011D76141F41B6
:104250008123061EE1F9082E81C5182F0100F00701
:104260001C19204001424040E2414042420201808C
:104270002022A3600060834120802F16200921A105
:10428000A3A0A0A0A1E0271C09806142C2408060D9
:10429000418D0B3DC9171E0321091C05E22120E2B7
:1042A00054121301E2263FA0A0AD1B3E0358116D2E
:1042B000A2144D261D41013D7A0F8C0A2010844323
:1042C000300E304082511A100702FE8004FD55ED79
:1042D0001EFD75121C0B08053A69AA2AAA693A053F
:1042E00020031C05828A522206091C0422538A7369
:1042F000194E0312051C04555DC13E151C0C84FFAC
:1043000044002F2929FF29292FF6082C0A3E8282F2
:10431000423A424282BE2C174C0B90521B1AF616A0
:10432000125198307A152C0C81413181014141D1D3
:10433000614141F5111641B31EF008123E41DA0504
:1043400015BF2270131E01FE11100AF18140C050EA
:104350006141C141F81C052171A12134061C047082
:10436000202012182D3D062D3A061E212504114E3F
:104370005C14A1600090701090F1010141312101A5
:10438000214000F101540A4D91066D7D065DC21178
:104390001C0C494D2B2880463D047C85CEB80B1C57
:1043A0000A4F4929AF402F102C43CA151C0C827E9E
:1043B0008090939292FF92929019041C0B88FF04B4
:1043C0008AAABB4E4BBA8A0C18140AF79097F0923F
:1043D000F19193F5B04C0840432222128A86DA0507
:1043E0003C0C807F157F95FF082624FE24280600BC
:1043F0000AFF809F41211D21419F000101B3011C43
:104400000C8888FF4800CF54545252D901141C0A1A
:10441000D4B388043CC506C43C7E152C0610F102BA
:10442000007EF70E1D2A080C0D4D00405F51F15122
:1044300051DF00FC00FF11112D83192E0FD6064EFF
:104440000FC8062D140C1DCB133DDA131D00141DCF
:104450002A0C210D1DE3051DC2031DEE150F5F087B
:104460000FA7150C0E6EA05048281494D4949828C9
:104470005060C0A61C0C136CF8FF0601FFFEFE1F67
:104480000904E4E50B1EF81F0FF8A0121C0F030F20
:104490003C70C0439F3B22444464B2DF2A050D7246
:1044A000510D3E014D1B0D7E9D220D4F630D3101BF
:1044B000BEC0AA0ABDC20ABDCA1B3D041DFDD70A63
:1044C000BEC0101C0D2C690D1C0D918C405C20226F
:1044D000B4282422300489092E21BB1B1F809E5939
:1044E0000C2E9F8E0C3C0D3C20BFE008840A29C88E
:1044F000090AE467142EF9D80A1DED1B4D691B2D1E
:104500000B101D99161C05FF02C23A94031DB2122E
:104510003C04818100EC0B4D3E1F0D240D225E07F3
:1045200000184DBE0F1DB51B4DD70F3DC31E1D0EF0
:10453000101DDA1E1E0BDE196E0BEA171F0908711B
:104540001E2DB11D1D020A2E070C0B4D1C044E0F13
:10455000E0063D1B104DFE1E1D571F029F00013D32
:10456000B40EAEE0A3119DD9192C04804060C80997
:104570003280065D040D3EC0DB094DF509AEE0F664
:104580000D31472E803912AAE01C1EE049090D1991
:104590002A262DE60C1DB60C31045DDA192D4B0FC1
:1045A0004D741E3C0E0602FAAAAAAAABAAAABA82A7
:1045B00002067D0F3C0488009F1A083DD9071EFCA7
:1045C000A0052F8565A6052D9D162C0D2119FF0927
:1045D00090BEABAAEAAAABBE721F1C0A0909F90970
:1045E0000901013FC19E080D18FD1B2DD7052DD6D1
:1045F0000C21054DA60C5D391F4DA80C5E07CF1F81
:104600006E073D0F7D2D1A6DE00C6DE10C2D391AF2
:1046100021133DF4193DAB181D0D0D4D3E2459518C
:10462000018901100502030204047D130FAD22204D
:10463000AE6476107C047A030AA4171F02032B1DB4
:104640006308090CA1100D1638069EF47D101C0598
:104650001060028C3E1E2D4C1A0E129202281C066F
:1046600004047E0140DB07127E020B12427E342DD1
:10467000F6113C04FC2526FE110E1004BE1A0C0C8B
:1046800012308F80844C55252525554C7E1731805E
:10469000417F0117801C0444485048210005107FC9
:1046A00050484480100680828282FE0441060D112B
:1046B00044252D181B9D46220D1064193C05D0FF82
:1046C0009010F1230D1301291D59143C04FF0083A0
:1046D000F8140C05113F40407894084E30E4201D3A
:1046E0000B1F040411222C204010040201FF846ED1
:1046F0000E1C1BFD7311040C1084844424548F146D
:10470000244484843F1C040041396F050C0B104085
:1047100040424C40407004093104193D520B1F4186
:10472000FF571D040411494943A01C0440C05F7396
:104730001D127F040E134FA2081C058060F807CFDE
:10474000116F0F083D1CFDE6121FFF00BC1B1E4031
:10475000C81B11C30D11A41A1FF01F1306158704DF
:104760000510E2928A86E02C07402215081661BEE9
:104770000E0E157FE9064682FD1DD11C0912200888
:104780000F10404022241048807F04081824224043
:10479000001D1F131C08FF1090003F484876100FA3
:1047A000104270CD19200444827FC43520091103C2
:1047B0001C062030AC631046212F090EAC240D10CE
:1047C00093280C0D1222672212928040211608169F
:1047D00021BA1C21800C0C109020988888E98E88C2
:1047E00088A898D4031F42810E210C081280844BA4
:1047F00028102847E3271F0202291A4A02C30D1175
:104800000D132D3524510421010110C0040C121880
:1048100008EAACA8A8AFA8A8ACEAC01D700E3DF984
:10482000242D39230E221E5E1E0D1EFE1DF1BFED2E
:104830008D1EEDC003DD2D1E0D13E9080D13A824F8
:104840000D253505DDFC1EF55FDD9C1EFDC0031C3E
:1048500007488808C83800DA105DBE08E56119FD10
:104860001DCE160B150043C13700FE981DE4031D35
:1048700083240D143E1F1D612A2D3D040E1240405D
:1048800004500702E2222222FE040A11E20110076C
:10489000FF0008060116040F12024C43031C079484
:1048A00053B29EB2D2031E0F16A23E382C2DC11D4C
:1048B0000F150A0ABE261C0404F655EB110C06154A
:1048C000CF1412911805272D63210C0614070A092D
:1048D000080E2B295FF902252E0D15DE2C5D7E19A1
:1048E0000D163F270C0C1594F39200F21410DF10F4
:1048F00014F285273C04040809CB090D15D3060CD6
:104900000A148292DAD6B2B19189C1CD282D170E40
:104910002D370E0116402DC70E0C07140064D44D20
:10492000C65495144D670E1E034A290E200C140F11
:104930000D1EB40E0115807D470F0117806DE70E27
:104940000911BF0C0B14F453FA56F0896741E94F73
:10495000CB091C0407010724231DF42606530280FB
:10496000080C14463282B2466B524A621266004FFD
:104970000E08980B09153F1C0742F22EE2013D7507
:10498000170E153F8E1C2F0702EF162DF20B051880
:10499000800C07174CC47546C44C34101E08B72051
:1049A0001DB8200516000C081564DC88AAFFAABEF5
:1049B0008E1F1C050F040A073E031D4503059300C7
:1049C000097E000C0B168868FF4802FAAFAAAFFAFE
:1049D000CA190408150F000A0A060306401E081625
:1049E000211D5218000415FF0809201DCA112DB8F9
:1049F0001807150304411D6E0E1D41080C05149186
:104A00009191900003DE060426ED800A1C05D8541F
:104A10005251161B0C041654D83080040219043F5E
:104A20000C0D1C001C0BEAAEAAACABAAEE0A1A8055
:104A3000050915001DF8051E009D091DA0080D148F
:104A400020091E04DA124DDB1C0DFF00050DFF00CE
:104A5000030E5100C0090D3EC00A0D7E800B0D7E75
:104A6000C00A0D3E800A0D14AB299D101DED4B2987
:104A70000D13A9270D18DA290D1E7A29BDD4170D9B
:104A800012A4090D19BC03EDC0082D7B110D118076
:104A9000090D17BC033D8005AD3A181DC6170D1052
:104AA0000B125DD6170D1625319D6D182DF9170DBA
:104AB0001040060D1C09182C0C98F7948410D45F34
:104AC00054545FD4EC05062E0200000C1511F28040
:104AD000A0AFA9E9A9AFA080C00D1D6D2C3EF22F9B
:104AE0002855000D1002034D7B320E190E49362C4D
:104AF000085575D55F553595971DFF0905E8361F93
:104B0000090F2C200D190E124C051011F200BE10C9
:104B10004E205D200D1000100D1CBC295202C04E0D
:104B2000023B1D0114C00918001C0C02048020184F
:104B300087748404140CE01DFE08210E5DAE2D0563
:104B400019801C090022EAAABFAAAAEA83210E1032
:104B50000F80121E0F333202190AC21C0C4429D1D5
:104B60004D5350534CD229442E30FE09EE370006E7
:104B7000190D090D0B09C04C0C1051951595F595A3
:104B8000159F501068140D107F0A4D7A140E2200E4
:104B90004008FE0F650A0D1A3C08ED40080A110492
:104BA000800D1B3C083D25301C08171515D5151523
:104BB00017D7171DE9090511801D29220A1905C0FB
:104BC0009D800D0E11083F030D1A7C08ED800D0D20
:104BD0001440040D187C083DC00E1EF4A4281D913D
:104BE0002E2FC53680040D10C0036E0A07180D164F
:104BF000EA302C08E20004342C27F4BC140E11080F
:104C00003815051E402D141D0C0813A4ACB5E6B4D0
:104C1000ACA440050C0719080A0B04040B00031C84
:104C20000B72077A02221A12375212AB0C0D10E5E2
:104C3000092E0FD62606190F801C07322A2222A21F
:104C4000623E100E132080050F1C0108061D1D007A
:104C50000410054044FF44032E404005F9001DF9AF
:104C60000F0F19080B00032C054824F20998230C98
:104C70000514F21210002B04011C81ADC00E2DACE6
:104C80000E0D10C0040D18BC0EFDC00C0E100F252B
:104C90000F0D1B3C103DD33C2C09A44474BDA294C1
:104CA0006C1CBC240510692D691A0D1A7F051E8025
:104CB000C00E1D00311D21173EC081170D13423F4C
:104CC0000E19096B181C0A3846F454E8B4F3D408DA
:104CD0008103061002000C061D01070A070BC91EFE
:104CE0004FC23C9A190E110880043D12370E180667
:104CF0008004340B2098E698A464BE647EE4000D22
:104D00001182161A07800D192B341C0620E2002090
:104D1000BEDF190F13BEA040060E1D0900080DFFCF
:104D2000C00D1B0000402C05FC424222C933FE048A
:104D300000037DD81A0D1604312C0A44BC24F288D5
:104D40007654FC54262A061003803F060101120DFA
:104D500019DF33AE7C6F070D3015223C0A48BE28A0
:104D600056A86464E2386E120911404D85280D166C
:104D70006A1E1C0A905CA29808F806C83850250FD5
:104D8000110505C0050B1C0403401D0B332E3C828E
:104D9000082E3C41090A1106804D232E0117FF3CC5
:104DA000075EF2525EC0F8971E6D433AAD01081ED1
:104DB0000C0C310F9708074003BD80130E110E40F5
:104DC0000A0E1C0FC004BD80130E1007141D0D1A0F
:104DD0007C120DFFC00B0DFFC00B0DFFC00B0DFFB4
:104DE000C00B0DFFC00B0DFFC00B0D7DC00B2C0ABF
:104DF0000022E22AAA6AAA9E6080480D11000D0DC9
:104E00001DC0030D7FC0081C09C03EFEFC22FE2011
:104E1000FC8008FC0408070C410E2E0741100D1AF7
:104E2000420D1C0AFE126EA298A4E294A88A3B0EC0
:104E3000100FE8481F040A021206990200280A000F
:104E4000E210203EC222BE70800D10000A3E09739F
:104E50003C0D1940033C0A103EDAB6BABAB6FA1E47
:104E60002C13F540120D010E1A0FC0070C0B1488FD
:104E7000FE2828CC645644C40CC00E1E09BD1A0D71
:104E800019C0082C0B209CE654A43CE82CFE6C476F
:104E90000BFE0700060C0799050305090F09800E94
:104EA0003DC3201D02313D22450D1000124D8441AD
:104EB0000919407D65360E3520E0401C0920DC20B4
:104EC00020DE2424A4C0031D9F410D1000120F1BDF
:104ED0000702794E0DFF40030DFF40030D7D400397
:104EE0002C08FE1000BCECEFECED2A0E1002684E10
:104EF0001C040A09067C200D19C10B200504027E42
:104F000052013ED6C943FD40191DC04A0C04980108
:104F10000A07800F0D3F80102DCB424C0400C07E4D
:104F2000D73E0D1140053DA43B0D9940072C0502CD
:104F3000F22A2A8B3C1EFAF6350C0414010F01FFED
:104F4000130D19224C3C0902CC3820188E78880E9B
:104F5000410510BF2DDA3E069A03800D7E80030DB9
:104F60007F80050D3D800A4C07DC68FE6868D0BD77
:104F7000450A1007011A02000D1CC9342DF1453FE6
:104F80003EC8A33B0E1006FF150C071A06090403C2
:104F9000030400132C0504F80404FC284EF8433CD9
:104FA000FD40177E0339310D1481150C0E1288E473
:104FB0001220A028A8BEA8E8E4A0A0273F2DDA1060
:104FC0000C051501060010734D1C0790FF50508012
:104FD0000049450E14FC152F1F011F62463D11426A
:104FE0000C041210101C802D1C0480FE0202110003
:104FF0000613FEE222241C401E00044E2D47160C10
:105000000411030C18E0291E08D24A0C0B11487831
:105010008E98284848888C88000A1D5F420C081426
:105020001E11121610181047141EF8134B2388FE79
:10503000050F1788F82840FF1F00F53F5D00131C7F
:105040000B4848FF4848229E82A2A2233DFE30C062
:105050000A1F101FDA190C06142F2828282F6009A0
:105060001F02EA0741232AEF050C0617EA02002077
:105070001FC1570D156F501C042042044E4E1C07D3
:1050800044C4447F44C4D453FDE12D000B140621D5
:105090001827201116081423801C04102284F84DB0
:1050A0002D5D2D2DE849FE1880151C0601203F219D
:1050B0003FDE260F16213F200A1C0CFC14147C55E1
:1050C0005654547C1414CE2CFD3E15000A18202191
:1050D00013150909151321808D3F300111801C051E
:1050E0002224283FB5501DCA340153805D80263DDF
:1050F000C2181E10292FFD7C194F003F033D0D16CD
:10510000ED441C06203028242357510C0511242877
:105110003060A02D533F1101011540000E123412D2
:10512000D35256525A5453D2161232403DBE550CE9
:10513000041615153C001F2C0444FC44FF312103C8
:105140002D3D3F0D1087351E20D5431E3FDA430508
:1051500015003C0A0222B2AA6622211149CF33FE71
:105160001180181605FD2D83200D15743F001010B9
:10517000985433180088C8B98A88A8C80800114014
:105180003E09C0220405141F2021383F1C0521E6DA
:1051900000208F341D42140A12AA221C051F080485
:1051A0003FCA570C04182A2A3F5E4D1C06504E4831
:1051B000C87F86251D604FFD81231F0F1004370C0B
:1051C000071521202728282C2B35F40FFF880842AB
:1051D000462A922A264240002121C02D96140C0412
:1051E00016093F0944207C05744FE444FF230D1148
:1051F000800D0C0B163F02003F05253F002F202E8F
:10520000471D5A536E66C4440110C02DF9042D7F0A
:10521000050F140810C0032D2C512C04FC4546B377
:10522000411D66260116400F16202030535DC0290F
:105230003DC1260F100800412F2E103D553180062C
:10524000173C40040A1348009FA4A4A4A2A238401B
:105250001D79332D58460A193F407D3F26091340DA
:105260000C071520100B040B10A00E2C042022AAF2
:105270003B051D3F051EBE36540110C02C07080516
:1052800022203F01F64C0E1310BF131F2826544650
:105290001DFA345DEE3C0D1180052E3FAC42061721
:1052A00023BF1DB04D1DB14D25400F11EA08C005AB
:1052B0002DC12441C105144015BE15B83D49410E0C
:1052C00012F8C00F2C0403022240030517C1AD00E1
:1052D000170D1580290E1A01C4221EFEBC122104CE
:1052E0000D16ED3D2DC0120D1AC4120C0C14FE3219
:1052F000CE00485452F1525448BF1D530201820E51
:105300001706C0240C081650CF41414FD0104A5206
:105310000F1902084412040B141017D555577D5766
:1053200055D517E03DBD2E3E0E5B3A0D20801A0D7F
:1053300014801E0E1A02002BBD801A0115BF0D1A13
:1053400044262D001A3B0828410D1500312D0E531F
:105350001E0870460D14002F0C0C16909048542314
:10536000924A6652C040802A1F0905030B0D22FD98
:085370005F2D565A00000000F9
:040000050800018965
:00000001FF
